:10000000B9C00000E7C00000E5C00000E3C0000088
:10001000E1C00000DFC00000DDC00000DBC0000068
:10002000D9C00000D7C00000D5C00000D3C0000078
:10003000D1C00000CFC00000CDC00000CBC0000088
:10004000C9C00000C7C00000C5C00000C3C0000098
:10005000D7C50000BFC00000BDC0000038C500000B
:10006000B9C00000B7C00000B5C00000B3C00000B8
:10007000B1C00000AFC00000ADC00000ABC00000C8
:10008000A9C00000A7C00000A5C00000A3C00000D8
:10009000A1C000009FC000009DC000009BC00000E8
:1000A00099C0000097C0000095C0000093C00000F8
:1000B00091C000008FC000008DC000008BC0000008
:1000C00089C0000087C0000085C0000083C0000018
:1000D00081C000007FC000007DC000007BC0000028
:1000E00079C000000404040406040707070701019F
:1000F00001010808070703030303000000000000D4
:1001000000000202020202020202030606060A0AB6
:100110000A0A0A0A0A0A0101010105050505050581
:100120000505090909090909090901021020200822
:100130000810204010204080020102010804020142
:1001400001020408102040808040201008040201B1
:10015000800402018040201008040201080402010A
:100160000102040810204080010204081020408091
:1001700051085D0811241FBECFEFD1E2DEBFCDBF15
:1001800000E00CBF12E0A0E0B2E0E8E1F2E100E044
:100190000BBF02C007900D92AE33B107D9F712E042
:1001A000AEE3B2E001C01D92AF38B107E1F711E054
:1001B000C2E7D1E000E006C022970109FE010BBFB3
:1001C0000E94F708C037D10780E00807A9F7B1D629
:1001D0000C94FB0815CFCF93DF9300D01F92CDB7BF
:1001E000DEB79A8389836B834C8389819A81FC0172
:1001F000818192816B8197D0282F89819A81FC011E
:10020000208389819A81FC01818192816B81AAD0AE
:10021000882F90E0880F991F80509E4FFC0120810D
:10022000318189819A81FC013283218321E08C8193
:10023000882309F420E089819A81FC013081898139
:100240009A81FC0181819281422F632F2CD00F90E3
:100250000F900F900F90DF91CF910895CF93DF9380
:100260001F921F92CDB7DEB79A8389830F900F90AC
:10027000DF91CF910895CF93DF931F921F92CDB757
:10028000DEB79A83898389819A81FC0120818981E3
:100290009A81FC0181819281622F32D00F900F9060
:1002A000DF91CF910895CF93DF9300D01F92CDB708
:1002B000DEB79A8389836B834C838C81882361F0BA
:1002C00089819A81FC0191818B81292F282B898139
:1002D0009A81FC0121830DC089819A81FC01818171
:1002E000982F8B8180958923282F89819A81FC0101
:1002F00021830F900F900F900F90DF91CF91089571
:10030000CF93DF9300D0CDB7DEB79A8389836B8319
:1003100089819A812B81FC0120830F900F900F908F
:10032000DF91CF910895CF93DF9300D000D0CDB768
:10033000DEB79D838C836E838E81882F90E0865DEF
:100340009E4F9A83898389819A81FC0184918B8352
:100350008B8126960FB6F894DEBF0FBECDBFDF911E
:10036000CF910895CF93DF9300D000D0CDB7DEB703
:100370009D838C836E838E81882F90E08C519F4F5C
:100380009A83898389819A81FC0184918B838B81F3
:1003900026960FB6F894DEBF0FBECDBFDF91CF918A
:1003A0000895CF93DF931F921F92CDB7DEB79A8344
:1003B000898389819A81FC011382128289819A81C1
:1003C000FC01148215821682178289819A81FC01B0
:1003D000118289819A81FC01108289819A81FC01B4
:1003E00010861186128613860F900F90DF91CF91A1
:1003F0000895CF93DF931F921F92CDB7DEB79A83F4
:1004000089830F900F90DF91CF910895CF93DF9361
:100410001F921F92CDB7DEB79A83898389819A8113
:10042000FC018081882F90E00F900F90DF91CF9199
:100430000895CF93DF931F921F92CDB7DEB79A83B3
:10044000898389819A81FC0110820F900F90DF913E
:10045000CF910895CF93DF93CDB7DEB728970FB62E
:10046000F894DEBF0FBECDBF9A8389834B835C8334
:100470006D837E8338872F8329813A818B819C818C
:10048000AD81BE81F90180879187A287B387898179
:100490009A812F813885FC013383228389819A8157
:1004A00021E0FC01218328960FB6F894DEBF0FBE31
:1004B000CDBFDF91CF910895CF93DF931F921F920D
:1004C000CDB7DEB79A83898389819A81FC018181C6
:1004D000882389F189819A81FC0184819581A68193
:1004E000B7810196A11DB11D29813A81F90184834B
:1004F0009583A683B78389819A81FC012481358104
:100500004681578189819A81FC0180859185A285E8
:10051000B385281739074A075B07C1F489819A8197
:1005200021E0FC01208389819A81FC0114821582DB
:10053000168217820BC089819A81FC011482158270
:100540001682178289819A81FC0110820F900F9088
:10055000DF91CF910895CF93DF931F921F92CDB774
:10056000DEB79A83898389819A81FC018281938194
:10057000FC0119950F900F90DF91CF9108952F9264
:100580003F924F925F926F927F928F929F92AF9223
:10059000BF92CF92DF92EF92FF920F931F93CF9370
:1005A000DF93CDB7DEB7E1970FB6F894DEBF0FBE8D
:1005B000CDBF9C8F8B8F6D8F2E8F3F8F48A359A3FC
:1005C0008B8D9C8D70D48B8D9C8DFC011082FC01D9
:1005D0001182FC011282FC011382FC011482FC01D5
:1005E0001582FC011682FC0117828B8D9C8DFC010B
:1005F000118610868B8D9C8DFC011286FC01138662
:10060000FC011486FC011586FC011686FC01178688
:10061000FC01108AFC01118A8B8D9C8D429603E0AF
:1006200010E07C0107C0C701BCDEFCE0EF0EF11C4E
:10063000015011090F3F2FEF1207A9F78D8D882365
:1006400009F0FEC084E490E0FC0110821A82198255
:100650008E8D9F8DA8A1B9A18A30FDE39F07A105CA
:10066000B10550F485E490E025E0FC01208380E0B2
:1006700094E09A83898354C08E8D9F8DA8A1B9A1DF
:100680008532F4EF9F07A105B10550F485E490E0B1
:1006900024E0FC01208380E091E09A83898340C0BC
:1006A0008E8D9F8DA8A1B9A18139F0ED9F07F3E050
:1006B000AF07B10550F485E490E023E0FC0120830E
:1006C00080E490E09A8389832BC08E8D9F8DA8A1B2
:1006D000B9A18138F4E89F07FEE1AF07B10550F4F6
:1006E00085E490E022E0FC01208388E090E09A839A
:1006F000898316C08E8D9F8DA8A1B9A18130F4E2A7
:100700009F07F4EFAF07B10550F485E490E021E0D6
:10071000FC01208381E090E09A83898301C0BEC1FF
:1007200089819A819C01442737FD4095542F80E0B0
:1007300094E2A4EFB0E0BC01CD01CBD4DA01C90151
:100740002E8D3F8D48A159A1BC01CD01C2D4DA0143
:10075000C9018F839887A987BA878F819885A985D2
:10076000BA858F3F9105A105B10511F008F096C13A
:100770008F81988520E031E0281B390B8B8D9C8D73
:10078000FC01318720878F819885A985BA851C0156
:100790002D01612C712C430185E490E0FC018081E6
:1007A000882F90E0877099270197880F991F880FED
:1007B000991F880F991FFC01EA5EFD4F208131814E
:1007C000428153816481758186819781A22EB32EE7
:1007D000C42ED52EE62EF72E082F192F222D332DBD
:1007E000442D552D662D772D882D992D94D4A22E2C
:1007F000B32EC42ED52EE62EF72E082F192F2A2D14
:100800003B2D4C2D5D2D6E2D7F2D802F912FEB8D4F
:10081000FC8D228733874487558766877787808B4F
:10082000918B86E490E02B8D3C8DF90120853185FC
:10083000FC0120838EE690E021E0FC012083FDC0D6
:1008400080E890E0FC0110821C821B828E8D9F8DBF
:10085000A8A1B9A18A30FDE39F07A105B10550F415
:1008600081E890E025E0FC01208380E094E09C8317
:100870008B8354C08E8D9F8DA8A1B9A18532F4EFD2
:100880009F07A105B10550F481E890E024E0FC0148
:10089000208380E091E09C838B8340C08E8D9F8D70
:1008A000A8A1B9A18139F0ED9F07F3E0AF07B10529
:1008B00050F481E890E023E0FC01208380E490E0A4
:1008C0009C838B832BC08E8D9F8DA8A1B9A181386D
:1008D000F4E89F07FEE1AF07B10550F481E890E02E
:1008E00022E0FC01208388E090E09C838B8316C08B
:1008F0008E8D9F8DA8A1B9A18130F4E29F07F4EFFE
:10090000AF07B10550F481E890E021E0FC012083BD
:1009100081E090E09C838B8301C0C0C08B819C816F
:100920009C01442737FD4095542F80E094E2A4EFCA
:10093000B0E0BC01CD01CDD3DA01C9012E8D3F8DD0
:1009400048A159A1BC01CD01C4D3DA01C9018B87EB
:100950009C87AD87BE878B859C85AD85BE850097BE
:10096000F1E0AF07B10508F099C08B859C8522277F
:100970003327281B390B8B8D9C8DFC0131872087F9
:100980008B859C85AD85BE851C012D01612C712C4C
:10099000430181E890E0FC018081882F90E087701E
:1009A00099270197880F991F880F991F880F991F02
:1009B000FC01EA5EFD4F20813181428153816481D7
:1009C000758186819781A22EB32EC42ED52EE62E58
:1009D000F72E082F192F222D332D442D552D662D3E
:1009E000772D882D992D97D3A22EB32EC42ED52ED8
:1009F000E62EF72E082F192F2A2D3B2D4C2D5D2D7D
:100A00006E2D7F2D802F912FEB8DFC8D22873387CC
:100A10004487558766877787808B918B84E890E041
:100A20002B8D3C8DF90120853185FC01318320839C
:100A30008FE690E021E0FC0120831E821D8223C00E
:100A4000CE010F96AEDC4B8D5C8D2D813E81C901B0
:100A5000880F991F820F931F880F991F880F991F66
:100A6000840F951F42962CE0FE013F96DC01019019
:100A70000D922A95E1F7CE010F96BBDC8D819E8108
:100A800001969E838D838D819E8184309105C4F271
:100A90008B8D9C8D8E5B9F4FFC011082E1960FB673
:100AA000F894DEBF0FBECDBFDF91CF911F910F91A4
:100AB000FF90EF90DF90CF90BF90AF909F908F907E
:100AC0007F906F905F904F903F902F9008951F926E
:100AD0000F9200905F000F92112400905B000F9224
:100AE0002F933F934F935F936F937F938F939F9336
:100AF000AF93BF93EF93FF93CF93DF93CDB7DEB761
:100B000017D0DF91CF91FF91EF91BF91AF919F915E
:100B10008F917F916F915F914F913F912F910F90A6
:100B200000925B000F9000925F000F901F9018954D
:100B3000AF92BF92CF92DF92EF92FF920F931F93EB
:100B4000CF93DF931F92CDB7DEB706E410E0BED19E
:100B5000FC0180859185F8018083B8D1FC01A080DB
:100B6000B180C280D380E480F580068117812A2D70
:100B70003B2D4C2D5D2D6E2D7F2D802F912FA1E0D3
:100B80001BD3A22EB32EC42ED52EE62EF72E082F61
:100B9000192FA082B182C282D382E482F5820683B9
:100BA0001783198215C092D1AC018981282F30E0BA
:100BB000C901880F991F820F931F880F991F880FF3
:100BC000991F4296840F951F77DC89818F5F8983F7
:100BD0007DD18E5B9F4FFC01208181E0998192172E
:100BE00008F080E08823F9F60F90DF91CF911F91F4
:100BF0000F91FF90EF90DF90CF90BF90AF9008954E
:100C00001F920F9200905F000F92112400905B00E2
:100C10000F922F933F934F935F936F937F938F9395
:100C20009F93AF93BF93EF93FF93CF93DF93CDB792
:100C3000DEB717D0DF91CF91FF91EF91BF91AF91C8
:100C40009F918F917F916F915F914F913F912F91E4
:100C50000F9000925B000F9000925F000F901F902A
:100C60001895AF92BF92CF92DF92EF92FF920F93BF
:100C70001F93CF93DF931F921F92CDB7DEB704E887
:100C800010E024D1FC0180859185F8019183808357
:100C90001DD1FC01A080B180C280D380E480F580AA
:100CA000068117812A2D3B2D4C2D5D2D6E2D7F2D1C
:100CB000802F912FA1E080D2A22EB32EC42ED52E4C
:100CC000E62EF72E082F192FA082B182C282D3827E
:100CD000E482F582068317831A82198216C0F6D041
:100CE000AC0129813A81C901880F991F820F931F96
:100CF000880F991F880F991F4296840F951FDCDB80
:100D000089819A8101969A838983E0D08E5B9F4F77
:100D1000FC018081282F30E041E089819A8182178F
:100D2000930708F040E04423D1F60F900F90DF9135
:100D3000CF911F910F91FF90EF90DF90CF90BF90D8
:100D4000AF900895CF93DF93CDB7DEB728970FB656
:100D5000F894DEBF0FBECDBF9A8389834B835C833B
:100D60006D837E8338872F8389819A818E5B9F4F25
:100D7000FC018081843078F589819A818E5B9F4F58
:100D8000FC018081282F30E0C901880F991F820F54
:100D9000931F880F991F880F991F429629813A81C6
:100DA000F901E80FF91F2F8138858B819C81AD8176
:100DB000BE81AC01BD01CF014DDB89819A818E5B83
:100DC0009F4FFC01808121E0280F89819A818E5BF1
:100DD0009F4FFC01208328960FB6F894DEBF0FBE0C
:100DE000CDBFDF91CF910895CF93DF9300D01F92B5
:100DF000CDB7DEB79C838B831A8219823FC02981CD
:100E00003A81C901880F991F820F931F880F991F7C
:100E1000880F991F42962B813C81820F931FF6DA2F
:100E200021E08130910509F020E0222311F1298190
:100E30003A81C901880F991F820F931F880F991F4C
:100E4000880F991F42962B813C81820F931F83DB71
:100E500029813A81C901880F991F820F931F880F3A
:100E6000991F880F991F42962B813C81820F931FF7
:100E7000E0DA89819A8101969A8389838B819C81AA
:100E80008E5B9F4FFC018081282F30E089819A8101
:100E9000821793070CF4B3CF0F900F900F900F9021
:100EA000DF91CF910895CF93DF931F921F92CDB71B
:100EB000DEB79A83898389819A8190933F028093D8
:100EC0003E020F900F90DF91CF910895CF93DF9363
:100ED000CDB7DEB780913E0290913F02DF91CF9176
:100EE0000895CF93DF93CDB7DEB783E892E0C3D9FF
:100EF000DF91CF910895CF93DF93CDB7DEB786E82A
:100F000092E0B9D9DF91CF910895CF93DF93CDB718
:100F1000DEB789E892E0AFD9DF91CF910895CF9302
:100F2000DF93CDB7DEB78CE892E0A5D9DF91CF9102
:100F30000895CF93DF93CDB7DEB721E737E042E3E3
:100F400050E060E070E080E492E0FCDE2BE737E008
:100F500044E650E060E070E080E492E0F3DE25E8F3
:100F600037E042E350E060E070E080E492E0EADEE7
:100F70002FE837E044E650E060E070E080E492E083
:100F8000E1DE789480E492E02FDFFCCF0F931F9393
:100F9000CF93DF931F921F92CDB7DEB79A838983D9
:100FA00089819A814296009781F089819A818C018A
:100FB0000E5B1F4F89819A8142960817190729F005
:100FC0000C501109C80115DAF5CF89819A8158D0E2
:100FD0000F900F90DF91CF911F910F910895CF93B4
:100FE000DF9300D01F92CDB7DEB79A8389837C83CD
:100FF0006B8389819A818130910511F58B819C8168
:101000008F3F2FEF9207E1F420ED37E040E050E012
:1010100061E080E492E0B3DA41E069E083E892E0E5
:10102000DAD841E06AE086E892E0D5D841E06BE0AA
:1010300089E892E0D0D841E06CE08CE892E0CBD82F
:1010400089819A810097A9F48B819C818F3F2FEF32
:10105000920779F48CE892E001D989E892E0FED811
:1010600086E892E0FBD883E892E0F8D880E492E04A
:101070008DDF0F900F900F900F90DF91CF9108951B
:10108000CF93DF931F921F92CDB7DEB79A838983E8
:1010900010923F0210923E020F900F90DF91CF917D
:1010A0000895CF93DF93CDB7DEB76FEF7FEF81E089
:1010B00090E095DFDF91CF910895CF93DF93CDB787
:1010C000DEB76FEF7FEF80E090E089DFDF91CF91B7
:1010D0000895A1E21A2EAA1BBB1BFD010DC0AA1F79
:1010E000BB1FEE1FFF1FA217B307E407F50720F091
:1010F000A21BB30BE40BF50B661F771F881F991F0C
:101100001A9469F760957095809590959B01AC0154
:10111000BD01CF010895DF93CF931F930F939A9D45
:10112000F02D219FF00D8B9DF00D8A9DE02DF10D8E
:10113000039FF00D029FE00DF11D4E9DE00DF11D8E
:101140005E9DF00D4F9DF00D7F936F93BF92AF9218
:101150005F934F93D5013CD08B01AC01D70138D0C0
:10116000EB01E80FF91FD6011FD02F913F91D60157
:101170002FD0C60FD71FE81FF91FAF91BF9114D012
:101180002F913F9125D0C60FD71FE81FF91FD60119
:101190001FD0E60FF71F9801BE01CF0111240F9158
:1011A0001F91CF91DF91089513D0460F571FC81F8D
:1011B000D91F08F4319608950024A7FD00942A0F42
:1011C000301D401D501D601D701D801D901D089517
:1011D000A29FB001B39FC001A39F700D811D112478
:1011E000911DB29F700D811D1124911D08950790CE
:1011F000F691E02D199411E0C2E7D1E000E005C0BE
:1012000022970109FE010BBFF2DFC437D10780E04E
:081210000807B1F7F894FFCFC5
:1012180020002300260029002C002F0032000001A6
:1012280003010601090100000000000000000000A1
:101238000000000000000400000000000000100092
:0E124800000000000000400000000000000058
:00000001FF
