
ste-INTERRUPCAO_v1.elf:     file format elf32-avr

Sections:
Idx Name          Size      VMA       LMA       File off  Algn
  0 .text         00001056  00000000  00000000  00000074  2**1
                  CONTENTS, ALLOC, LOAD, READONLY, CODE
  1 .bss          000000cb  00800200  00800200  000010ca  2**0
                  ALLOC
  2 .stab         000022e0  00000000  00000000  000010cc  2**2
                  CONTENTS, READONLY, DEBUGGING
  3 .stabstr      00002364  00000000  00000000  000033ac  2**0
                  CONTENTS, READONLY, DEBUGGING

Disassembly of section .text:

00000000 <__vectors>:
       0:	73 c0       	rjmp	.+230    	; 0xe8 <__dtors_end>
       2:	00 00       	nop
       4:	cf c5       	rjmp	.+2974   	; 0xba4 <__vector_1>
       6:	00 00       	nop
       8:	fc c5       	rjmp	.+3064   	; 0xc02 <__vector_2>
       a:	00 00       	nop
       c:	29 c6       	rjmp	.+3154   	; 0xc60 <__vector_3>
       e:	00 00       	nop
      10:	56 c6       	rjmp	.+3244   	; 0xcbe <__vector_4>
      12:	00 00       	nop
      14:	83 c6       	rjmp	.+3334   	; 0xd1c <__vector_5>
      16:	00 00       	nop
      18:	b0 c6       	rjmp	.+3424   	; 0xd7a <__vector_6>
      1a:	00 00       	nop
      1c:	dd c6       	rjmp	.+3514   	; 0xdd8 <__vector_7>
      1e:	00 00       	nop
      20:	0a c7       	rjmp	.+3604   	; 0xe36 <__vector_8>
      22:	00 00       	nop
      24:	57 c2       	rjmp	.+1198   	; 0x4d4 <__vector_9>
      26:	00 00       	nop
      28:	8d c2       	rjmp	.+1306   	; 0x544 <__vector_10>
      2a:	00 00       	nop
      2c:	bf c2       	rjmp	.+1406   	; 0x5ac <__vector_11>
      2e:	00 00       	nop
      30:	84 c0       	rjmp	.+264    	; 0x13a <__bad_interrupt>
      32:	00 00       	nop
      34:	82 c0       	rjmp	.+260    	; 0x13a <__bad_interrupt>
      36:	00 00       	nop
      38:	80 c0       	rjmp	.+256    	; 0x13a <__bad_interrupt>
      3a:	00 00       	nop
      3c:	7e c0       	rjmp	.+252    	; 0x13a <__bad_interrupt>
      3e:	00 00       	nop
      40:	7c c0       	rjmp	.+248    	; 0x13a <__bad_interrupt>
      42:	00 00       	nop
      44:	7a c0       	rjmp	.+244    	; 0x13a <__bad_interrupt>
      46:	00 00       	nop
      48:	78 c0       	rjmp	.+240    	; 0x13a <__bad_interrupt>
      4a:	00 00       	nop
      4c:	76 c0       	rjmp	.+236    	; 0x13a <__bad_interrupt>
      4e:	00 00       	nop
      50:	74 c0       	rjmp	.+232    	; 0x13a <__bad_interrupt>
      52:	00 00       	nop
      54:	72 c0       	rjmp	.+228    	; 0x13a <__bad_interrupt>
      56:	00 00       	nop
      58:	70 c0       	rjmp	.+224    	; 0x13a <__bad_interrupt>
      5a:	00 00       	nop
      5c:	6e c0       	rjmp	.+220    	; 0x13a <__bad_interrupt>
      5e:	00 00       	nop
      60:	6c c0       	rjmp	.+216    	; 0x13a <__bad_interrupt>
      62:	00 00       	nop
      64:	1b c4       	rjmp	.+2102   	; 0x89c <__vector_25>
      66:	00 00       	nop
      68:	c6 c4       	rjmp	.+2444   	; 0x9f6 <__vector_26>
      6a:	00 00       	nop
      6c:	66 c0       	rjmp	.+204    	; 0x13a <__bad_interrupt>
      6e:	00 00       	nop
      70:	64 c0       	rjmp	.+200    	; 0x13a <__bad_interrupt>
      72:	00 00       	nop
      74:	62 c0       	rjmp	.+196    	; 0x13a <__bad_interrupt>
      76:	00 00       	nop
      78:	60 c0       	rjmp	.+192    	; 0x13a <__bad_interrupt>
      7a:	00 00       	nop
      7c:	5e c0       	rjmp	.+188    	; 0x13a <__bad_interrupt>
      7e:	00 00       	nop
      80:	5c c0       	rjmp	.+184    	; 0x13a <__bad_interrupt>
      82:	00 00       	nop
      84:	5a c0       	rjmp	.+180    	; 0x13a <__bad_interrupt>
      86:	00 00       	nop
      88:	58 c0       	rjmp	.+176    	; 0x13a <__bad_interrupt>
      8a:	00 00       	nop
      8c:	56 c0       	rjmp	.+172    	; 0x13a <__bad_interrupt>
      8e:	00 00       	nop
      90:	54 c0       	rjmp	.+168    	; 0x13a <__bad_interrupt>
      92:	00 00       	nop
      94:	52 c0       	rjmp	.+164    	; 0x13a <__bad_interrupt>
      96:	00 00       	nop
      98:	50 c0       	rjmp	.+160    	; 0x13a <__bad_interrupt>
      9a:	00 00       	nop
      9c:	4e c0       	rjmp	.+156    	; 0x13a <__bad_interrupt>
      9e:	00 00       	nop
      a0:	4c c0       	rjmp	.+152    	; 0x13a <__bad_interrupt>
      a2:	00 00       	nop
      a4:	4a c0       	rjmp	.+148    	; 0x13a <__bad_interrupt>
      a6:	00 00       	nop
      a8:	48 c0       	rjmp	.+144    	; 0x13a <__bad_interrupt>
      aa:	00 00       	nop
      ac:	46 c0       	rjmp	.+140    	; 0x13a <__bad_interrupt>
      ae:	00 00       	nop
      b0:	44 c0       	rjmp	.+136    	; 0x13a <__bad_interrupt>
      b2:	00 00       	nop
      b4:	42 c0       	rjmp	.+132    	; 0x13a <__bad_interrupt>
      b6:	00 00       	nop
      b8:	40 c0       	rjmp	.+128    	; 0x13a <__bad_interrupt>
      ba:	00 00       	nop
      bc:	3e c0       	rjmp	.+124    	; 0x13a <__bad_interrupt>
      be:	00 00       	nop
      c0:	3c c0       	rjmp	.+120    	; 0x13a <__bad_interrupt>
      c2:	00 00       	nop
      c4:	3a c0       	rjmp	.+116    	; 0x13a <__bad_interrupt>
      c6:	00 00       	nop
      c8:	38 c0       	rjmp	.+112    	; 0x13a <__bad_interrupt>
      ca:	00 00       	nop
      cc:	36 c0       	rjmp	.+108    	; 0x13a <__bad_interrupt>
      ce:	00 00       	nop
      d0:	34 c0       	rjmp	.+104    	; 0x13a <__bad_interrupt>
      d2:	00 00       	nop
      d4:	32 c0       	rjmp	.+100    	; 0x13a <__bad_interrupt>
      d6:	00 00       	nop
      d8:	30 c0       	rjmp	.+96     	; 0x13a <__bad_interrupt>
      da:	00 00       	nop
      dc:	2e c0       	rjmp	.+92     	; 0x13a <__bad_interrupt>
      de:	00 00       	nop
      e0:	2c c0       	rjmp	.+88     	; 0x13a <__bad_interrupt>
	...

000000e4 <__ctors_start>:
      e4:	8c 07       	cpc	r24, r28

000000e6 <__ctors_end>:
      e6:	80 07       	cpc	r24, r16

000000e8 <__dtors_end>:
      e8:	11 24       	eor	r1, r1
      ea:	1f be       	out	0x3f, r1	; 63
      ec:	cf ef       	ldi	r28, 0xFF	; 255
      ee:	d1 e2       	ldi	r29, 0x21	; 33
      f0:	de bf       	out	0x3e, r29	; 62
      f2:	cd bf       	out	0x3d, r28	; 61
      f4:	00 e0       	ldi	r16, 0x00	; 0
      f6:	0c bf       	out	0x3c, r16	; 60

000000f8 <__do_copy_data>:
      f8:	12 e0       	ldi	r17, 0x02	; 2
      fa:	a0 e0       	ldi	r26, 0x00	; 0
      fc:	b2 e0       	ldi	r27, 0x02	; 2
      fe:	e6 e5       	ldi	r30, 0x56	; 86
     100:	f0 e1       	ldi	r31, 0x10	; 16
     102:	00 e0       	ldi	r16, 0x00	; 0
     104:	0b bf       	out	0x3b, r16	; 59
     106:	02 c0       	rjmp	.+4      	; 0x10c <__do_copy_data+0x14>
     108:	07 90       	elpm	r0, Z+
     10a:	0d 92       	st	X+, r0
     10c:	a0 30       	cpi	r26, 0x00	; 0
     10e:	b1 07       	cpc	r27, r17
     110:	d9 f7       	brne	.-10     	; 0x108 <__do_copy_data+0x10>

00000112 <__do_clear_bss>:
     112:	12 e0       	ldi	r17, 0x02	; 2
     114:	a0 e0       	ldi	r26, 0x00	; 0
     116:	b2 e0       	ldi	r27, 0x02	; 2
     118:	01 c0       	rjmp	.+2      	; 0x11c <.do_clear_bss_start>

0000011a <.do_clear_bss_loop>:
     11a:	1d 92       	st	X+, r1

0000011c <.do_clear_bss_start>:
     11c:	ab 3c       	cpi	r26, 0xCB	; 203
     11e:	b1 07       	cpc	r27, r17
     120:	e1 f7       	brne	.-8      	; 0x11a <.do_clear_bss_loop>

00000122 <__do_global_ctors>:
     122:	10 e0       	ldi	r17, 0x00	; 0
     124:	c6 ee       	ldi	r28, 0xE6	; 230
     126:	d0 e0       	ldi	r29, 0x00	; 0
     128:	03 c0       	rjmp	.+6      	; 0x130 <.do_global_ctors_start>

0000012a <.do_global_ctors_loop>:
     12a:	22 97       	sbiw	r28, 0x02	; 2
     12c:	fe 01       	movw	r30, r28
     12e:	83 d7       	rcall	.+3846   	; 0x1036 <__tablejump__>

00000130 <.do_global_ctors_start>:
     130:	c4 3e       	cpi	r28, 0xE4	; 228
     132:	d1 07       	cpc	r29, r17
     134:	d1 f7       	brne	.-12     	; 0x12a <.do_global_ctors_loop>
     136:	07 d7       	rcall	.+3598   	; 0xf46 <main>
     138:	82 c7       	rjmp	.+3844   	; 0x103e <__do_global_dtors>

0000013a <__bad_interrupt>:
     13a:	62 cf       	rjmp	.-316    	; 0x0 <__vectors>

0000013c <_ZN5PCInt13pcint_handlerEh>:
	void enable();
	void disable();
	static void set_f(uint8_t flag, uint8_t data);
	uint8_t get_f();
	static void manager_handler();
	static void pcint_handler(uint8_t pos){ (PCInt::_pCallback)[pos](); }
     13c:	df 93       	push	r29
     13e:	cf 93       	push	r28
     140:	0f 92       	push	r0
     142:	cd b7       	in	r28, 0x3d	; 61
     144:	de b7       	in	r29, 0x3e	; 62
     146:	89 83       	std	Y+1, r24	; 0x01
     148:	89 81       	ldd	r24, Y+1	; 0x01
     14a:	88 2f       	mov	r24, r24
     14c:	90 e0       	ldi	r25, 0x00	; 0
     14e:	88 0f       	add	r24, r24
     150:	99 1f       	adc	r25, r25
     152:	fc 01       	movw	r30, r24
     154:	ea 56       	subi	r30, 0x6A	; 106
     156:	fd 4f       	sbci	r31, 0xFD	; 253
     158:	01 90       	ld	r0, Z+
     15a:	f0 81       	ld	r31, Z
     15c:	e0 2d       	mov	r30, r0
     15e:	19 95       	eicall
     160:	0f 90       	pop	r0
     162:	cf 91       	pop	r28
     164:	df 91       	pop	r29
     166:	08 95       	ret

00000168 <_ZN5PCIntC1ENS_6int_idEPFvvE>:
 *  Created on: 5 de nov de 2018
 *      Author: guh86
 */

#ifndef PCINT_H_
#define PCINT_H_
     168:	df 93       	push	r29
     16a:	cf 93       	push	r28
     16c:	cd b7       	in	r28, 0x3d	; 61
     16e:	de b7       	in	r29, 0x3e	; 62
     170:	29 97       	sbiw	r28, 0x09	; 9
     172:	0f b6       	in	r0, 0x3f	; 63
     174:	f8 94       	cli
     176:	de bf       	out	0x3e, r29	; 62
     178:	0f be       	out	0x3f, r0	; 63
     17a:	cd bf       	out	0x3d, r28	; 61
     17c:	9a 83       	std	Y+2, r25	; 0x02
     17e:	89 83       	std	Y+1, r24	; 0x01
     180:	6b 83       	std	Y+3, r22	; 0x03
     182:	5d 83       	std	Y+5, r21	; 0x05
     184:	4c 83       	std	Y+4, r20	; 0x04

     186:	e9 81       	ldd	r30, Y+1	; 0x01
     188:	fa 81       	ldd	r31, Y+2	; 0x02
     18a:	8b 81       	ldd	r24, Y+3	; 0x03
     18c:	80 83       	st	Z, r24
#include <avr/io.h>
     18e:	8b 81       	ldd	r24, Y+3	; 0x03
     190:	87 70       	andi	r24, 0x07	; 7
     192:	e9 81       	ldd	r30, Y+1	; 0x01
     194:	fa 81       	ldd	r31, Y+2	; 0x02
     196:	81 83       	std	Z+1, r24	; 0x01
#include <avr/interrupt.h>
     198:	8b 81       	ldd	r24, Y+3	; 0x03
     19a:	88 2f       	mov	r24, r24
     19c:	90 e0       	ldi	r25, 0x00	; 0
     19e:	88 0f       	add	r24, r24
     1a0:	99 1f       	adc	r25, r25
     1a2:	fc 01       	movw	r30, r24
     1a4:	ea 56       	subi	r30, 0x6A	; 106
     1a6:	fd 4f       	sbci	r31, 0xFD	; 253
     1a8:	8c 81       	ldd	r24, Y+4	; 0x04
     1aa:	9d 81       	ldd	r25, Y+5	; 0x05
     1ac:	91 83       	std	Z+1, r25	; 0x01
     1ae:	80 83       	st	Z, r24
#include <stdint.h>
     1b0:	8b 81       	ldd	r24, Y+3	; 0x03
     1b2:	88 30       	cpi	r24, 0x08	; 8
     1b4:	40 f4       	brcc	.+16     	; 0x1c6 <_ZN5PCIntC1ENS_6int_idEPFvvE+0x5e>

     1b6:	a8 e6       	ldi	r26, 0x68	; 104
     1b8:	b0 e0       	ldi	r27, 0x00	; 0
     1ba:	e8 e6       	ldi	r30, 0x68	; 104
     1bc:	f0 e0       	ldi	r31, 0x00	; 0
     1be:	80 81       	ld	r24, Z
     1c0:	81 60       	ori	r24, 0x01	; 1
     1c2:	8c 93       	st	X, r24
     1c4:	31 c0       	rjmp	.+98     	; 0x228 <_ZN5PCIntC1ENS_6int_idEPFvvE+0xc0>
typedef void (* toFuncao_t)(void);
     1c6:	19 86       	std	Y+9, r1	; 0x09
     1c8:	8b 81       	ldd	r24, Y+3	; 0x03
     1ca:	88 30       	cpi	r24, 0x08	; 8
     1cc:	10 f0       	brcs	.+4      	; 0x1d2 <_ZN5PCIntC1ENS_6int_idEPFvvE+0x6a>
     1ce:	81 e0       	ldi	r24, 0x01	; 1
     1d0:	89 87       	std	Y+9, r24	; 0x09
     1d2:	18 86       	std	Y+8, r1	; 0x08
     1d4:	8b 81       	ldd	r24, Y+3	; 0x03
     1d6:	80 31       	cpi	r24, 0x10	; 16
     1d8:	10 f4       	brcc	.+4      	; 0x1de <_ZN5PCIntC1ENS_6int_idEPFvvE+0x76>
     1da:	91 e0       	ldi	r25, 0x01	; 1
     1dc:	98 87       	std	Y+8, r25	; 0x08
     1de:	89 85       	ldd	r24, Y+9	; 0x09
     1e0:	98 85       	ldd	r25, Y+8	; 0x08
     1e2:	89 23       	and	r24, r25
     1e4:	88 23       	and	r24, r24
     1e6:	41 f0       	breq	.+16     	; 0x1f8 <_ZN5PCIntC1ENS_6int_idEPFvvE+0x90>

     1e8:	a8 e6       	ldi	r26, 0x68	; 104
     1ea:	b0 e0       	ldi	r27, 0x00	; 0
     1ec:	e8 e6       	ldi	r30, 0x68	; 104
     1ee:	f0 e0       	ldi	r31, 0x00	; 0
     1f0:	80 81       	ld	r24, Z
     1f2:	82 60       	ori	r24, 0x02	; 2
     1f4:	8c 93       	st	X, r24
     1f6:	18 c0       	rjmp	.+48     	; 0x228 <_ZN5PCIntC1ENS_6int_idEPFvvE+0xc0>
class PCInt {
     1f8:	1f 82       	std	Y+7, r1	; 0x07
     1fa:	8b 81       	ldd	r24, Y+3	; 0x03
     1fc:	80 31       	cpi	r24, 0x10	; 16
     1fe:	10 f0       	brcs	.+4      	; 0x204 <_ZN5PCIntC1ENS_6int_idEPFvvE+0x9c>
     200:	81 e0       	ldi	r24, 0x01	; 1
     202:	8f 83       	std	Y+7, r24	; 0x07
     204:	1e 82       	std	Y+6, r1	; 0x06
     206:	8b 81       	ldd	r24, Y+3	; 0x03
     208:	88 31       	cpi	r24, 0x18	; 24
     20a:	10 f4       	brcc	.+4      	; 0x210 <_ZN5PCIntC1ENS_6int_idEPFvvE+0xa8>
     20c:	91 e0       	ldi	r25, 0x01	; 1
     20e:	9e 83       	std	Y+6, r25	; 0x06
     210:	8f 81       	ldd	r24, Y+7	; 0x07
     212:	9e 81       	ldd	r25, Y+6	; 0x06
     214:	89 23       	and	r24, r25
     216:	88 23       	and	r24, r24
     218:	39 f0       	breq	.+14     	; 0x228 <_ZN5PCIntC1ENS_6int_idEPFvvE+0xc0>
public:
     21a:	a8 e6       	ldi	r26, 0x68	; 104
     21c:	b0 e0       	ldi	r27, 0x00	; 0
     21e:	e8 e6       	ldi	r30, 0x68	; 104
     220:	f0 e0       	ldi	r31, 0x00	; 0
     222:	80 81       	ld	r24, Z
     224:	84 60       	ori	r24, 0x04	; 4
     226:	8c 93       	st	X, r24

enum int_id{PCINT_0=0, PCINT_1=1, PCINT_2=2, PCINT_3=3, PCINT_4=4, PCINT_5=5, PCINT_6=6, PCINT_7=7,
     228:	29 96       	adiw	r28, 0x09	; 9
     22a:	0f b6       	in	r0, 0x3f	; 63
     22c:	f8 94       	cli
     22e:	de bf       	out	0x3e, r29	; 62
     230:	0f be       	out	0x3f, r0	; 63
     232:	cd bf       	out	0x3d, r28	; 61
     234:	cf 91       	pop	r28
     236:	df 91       	pop	r29
     238:	08 95       	ret

0000023a <_ZN5PCInt5set_fEhh>:
			PCINT_8=8, PCINT_9=9, PCINT_10=10, PCINT_11=11, PCINT_12=12, PCINT_13=13, PCINT_14=14, PCINT_15=15,
			PCINT_16=16, PCINT_17=17, PCINT_18=18, PCINT_19=19, PCINT_20=20, PCINT_21=21, PCINT_22=22, PCINT_23=23
		};

     23a:	df 93       	push	r29
     23c:	cf 93       	push	r28
     23e:	0f 92       	push	r0
     240:	0f 92       	push	r0
     242:	cd b7       	in	r28, 0x3d	; 61
     244:	de b7       	in	r29, 0x3e	; 62
     246:	89 83       	std	Y+1, r24	; 0x01
     248:	6a 83       	std	Y+2, r22	; 0x02
	PCInt(int_id _id, toFuncao_t pCallback);
     24a:	89 81       	ldd	r24, Y+1	; 0x01
     24c:	88 23       	and	r24, r24
     24e:	31 f4       	brne	.+12     	; 0x25c <_ZN5PCInt5set_fEhh+0x22>
     250:	80 91 c6 02 	lds	r24, 0x02C6
     254:	9a 81       	ldd	r25, Y+2	; 0x02
     256:	89 2b       	or	r24, r25
     258:	80 93 c6 02 	sts	0x02C6, r24
	~PCInt();
     25c:	89 81       	ldd	r24, Y+1	; 0x01
     25e:	81 30       	cpi	r24, 0x01	; 1
     260:	31 f4       	brne	.+12     	; 0x26e <_ZN5PCInt5set_fEhh+0x34>
     262:	80 91 c7 02 	lds	r24, 0x02C7
     266:	9a 81       	ldd	r25, Y+2	; 0x02
     268:	89 2b       	or	r24, r25
     26a:	80 93 c7 02 	sts	0x02C7, r24
	void enable();
     26e:	89 81       	ldd	r24, Y+1	; 0x01
     270:	82 30       	cpi	r24, 0x02	; 2
     272:	31 f4       	brne	.+12     	; 0x280 <_ZN5PCInt5set_fEhh+0x46>
     274:	80 91 c8 02 	lds	r24, 0x02C8
     278:	9a 81       	ldd	r25, Y+2	; 0x02
     27a:	89 2b       	or	r24, r25
     27c:	80 93 c8 02 	sts	0x02C8, r24
	void disable();
     280:	0f 90       	pop	r0
     282:	0f 90       	pop	r0
     284:	cf 91       	pop	r28
     286:	df 91       	pop	r29
     288:	08 95       	ret

0000028a <_ZN5PCInt6enableEv>:
	static void set_f(uint8_t flag, uint8_t data);
	uint8_t get_f();
	static void manager_handler();
	static void pcint_handler(uint8_t pos){ (PCInt::_pCallback)[pos](); }
     28a:	df 93       	push	r29
     28c:	cf 93       	push	r28
     28e:	00 d0       	rcall	.+0      	; 0x290 <_ZN5PCInt6enableEv+0x6>
     290:	00 d0       	rcall	.+0      	; 0x292 <_ZN5PCInt6enableEv+0x8>
     292:	cd b7       	in	r28, 0x3d	; 61
     294:	de b7       	in	r29, 0x3e	; 62
     296:	9a 83       	std	Y+2, r25	; 0x02
     298:	89 83       	std	Y+1, r24	; 0x01

     29a:	e9 81       	ldd	r30, Y+1	; 0x01
     29c:	fa 81       	ldd	r31, Y+2	; 0x02
     29e:	80 81       	ld	r24, Z
     2a0:	88 30       	cpi	r24, 0x08	; 8
     2a2:	b0 f4       	brcc	.+44     	; 0x2d0 <_ZN5PCInt6enableEv+0x46>
private:
     2a4:	ab e6       	ldi	r26, 0x6B	; 107
     2a6:	b0 e0       	ldi	r27, 0x00	; 0
     2a8:	eb e6       	ldi	r30, 0x6B	; 107
     2aa:	f0 e0       	ldi	r31, 0x00	; 0
     2ac:	80 81       	ld	r24, Z
     2ae:	48 2f       	mov	r20, r24
     2b0:	e9 81       	ldd	r30, Y+1	; 0x01
     2b2:	fa 81       	ldd	r31, Y+2	; 0x02
     2b4:	81 81       	ldd	r24, Z+1	; 0x01
     2b6:	28 2f       	mov	r18, r24
     2b8:	30 e0       	ldi	r19, 0x00	; 0
     2ba:	81 e0       	ldi	r24, 0x01	; 1
     2bc:	90 e0       	ldi	r25, 0x00	; 0
     2be:	02 2e       	mov	r0, r18
     2c0:	02 c0       	rjmp	.+4      	; 0x2c6 <_ZN5PCInt6enableEv+0x3c>
     2c2:	88 0f       	add	r24, r24
     2c4:	99 1f       	adc	r25, r25
     2c6:	0a 94       	dec	r0
     2c8:	e2 f7       	brpl	.-8      	; 0x2c2 <_ZN5PCInt6enableEv+0x38>
     2ca:	84 2b       	or	r24, r20
     2cc:	8c 93       	st	X, r24
     2ce:	55 c0       	rjmp	.+170    	; 0x37a <_ZN5PCInt6enableEv+0xf0>
	uint8_t _id;
     2d0:	e9 81       	ldd	r30, Y+1	; 0x01
     2d2:	fa 81       	ldd	r31, Y+2	; 0x02
     2d4:	80 81       	ld	r24, Z
     2d6:	1e 82       	std	Y+6, r1	; 0x06
     2d8:	88 30       	cpi	r24, 0x08	; 8
     2da:	10 f0       	brcs	.+4      	; 0x2e0 <_ZN5PCInt6enableEv+0x56>
     2dc:	81 e0       	ldi	r24, 0x01	; 1
     2de:	8e 83       	std	Y+6, r24	; 0x06
     2e0:	e9 81       	ldd	r30, Y+1	; 0x01
     2e2:	fa 81       	ldd	r31, Y+2	; 0x02
     2e4:	80 81       	ld	r24, Z
     2e6:	1d 82       	std	Y+5, r1	; 0x05
     2e8:	80 31       	cpi	r24, 0x10	; 16
     2ea:	10 f4       	brcc	.+4      	; 0x2f0 <_ZN5PCInt6enableEv+0x66>
     2ec:	91 e0       	ldi	r25, 0x01	; 1
     2ee:	9d 83       	std	Y+5, r25	; 0x05
     2f0:	8e 81       	ldd	r24, Y+6	; 0x06
     2f2:	9d 81       	ldd	r25, Y+5	; 0x05
     2f4:	89 23       	and	r24, r25
     2f6:	88 23       	and	r24, r24
     2f8:	b1 f0       	breq	.+44     	; 0x326 <_ZN5PCInt6enableEv+0x9c>
	uint8_t tmp_id;
     2fa:	ac e6       	ldi	r26, 0x6C	; 108
     2fc:	b0 e0       	ldi	r27, 0x00	; 0
     2fe:	ec e6       	ldi	r30, 0x6C	; 108
     300:	f0 e0       	ldi	r31, 0x00	; 0
     302:	80 81       	ld	r24, Z
     304:	48 2f       	mov	r20, r24
     306:	e9 81       	ldd	r30, Y+1	; 0x01
     308:	fa 81       	ldd	r31, Y+2	; 0x02
     30a:	81 81       	ldd	r24, Z+1	; 0x01
     30c:	28 2f       	mov	r18, r24
     30e:	30 e0       	ldi	r19, 0x00	; 0
     310:	81 e0       	ldi	r24, 0x01	; 1
     312:	90 e0       	ldi	r25, 0x00	; 0
     314:	02 2e       	mov	r0, r18
     316:	02 c0       	rjmp	.+4      	; 0x31c <_ZN5PCInt6enableEv+0x92>
     318:	88 0f       	add	r24, r24
     31a:	99 1f       	adc	r25, r25
     31c:	0a 94       	dec	r0
     31e:	e2 f7       	brpl	.-8      	; 0x318 <_ZN5PCInt6enableEv+0x8e>
     320:	84 2b       	or	r24, r20
     322:	8c 93       	st	X, r24
     324:	2a c0       	rjmp	.+84     	; 0x37a <_ZN5PCInt6enableEv+0xf0>
	static uint8_t _flag0, _flag1, _flag2;
     326:	e9 81       	ldd	r30, Y+1	; 0x01
     328:	fa 81       	ldd	r31, Y+2	; 0x02
     32a:	80 81       	ld	r24, Z
     32c:	1c 82       	std	Y+4, r1	; 0x04
     32e:	80 31       	cpi	r24, 0x10	; 16
     330:	10 f0       	brcs	.+4      	; 0x336 <_ZN5PCInt6enableEv+0xac>
     332:	81 e0       	ldi	r24, 0x01	; 1
     334:	8c 83       	std	Y+4, r24	; 0x04
     336:	e9 81       	ldd	r30, Y+1	; 0x01
     338:	fa 81       	ldd	r31, Y+2	; 0x02
     33a:	80 81       	ld	r24, Z
     33c:	1b 82       	std	Y+3, r1	; 0x03
     33e:	88 31       	cpi	r24, 0x18	; 24
     340:	10 f4       	brcc	.+4      	; 0x346 <_ZN5PCInt6enableEv+0xbc>
     342:	91 e0       	ldi	r25, 0x01	; 1
     344:	9b 83       	std	Y+3, r25	; 0x03
     346:	8c 81       	ldd	r24, Y+4	; 0x04
     348:	9b 81       	ldd	r25, Y+3	; 0x03
     34a:	89 23       	and	r24, r25
     34c:	88 23       	and	r24, r24
     34e:	a9 f0       	breq	.+42     	; 0x37a <_ZN5PCInt6enableEv+0xf0>
	static toFuncao_t _pCallback[24];
     350:	ad e6       	ldi	r26, 0x6D	; 109
     352:	b0 e0       	ldi	r27, 0x00	; 0
     354:	ed e6       	ldi	r30, 0x6D	; 109
     356:	f0 e0       	ldi	r31, 0x00	; 0
     358:	80 81       	ld	r24, Z
     35a:	48 2f       	mov	r20, r24
     35c:	e9 81       	ldd	r30, Y+1	; 0x01
     35e:	fa 81       	ldd	r31, Y+2	; 0x02
     360:	81 81       	ldd	r24, Z+1	; 0x01
     362:	28 2f       	mov	r18, r24
     364:	30 e0       	ldi	r19, 0x00	; 0
     366:	81 e0       	ldi	r24, 0x01	; 1
     368:	90 e0       	ldi	r25, 0x00	; 0
     36a:	02 2e       	mov	r0, r18
     36c:	02 c0       	rjmp	.+4      	; 0x372 <_ZN5PCInt6enableEv+0xe8>
     36e:	88 0f       	add	r24, r24
     370:	99 1f       	adc	r25, r25
     372:	0a 94       	dec	r0
     374:	e2 f7       	brpl	.-8      	; 0x36e <_ZN5PCInt6enableEv+0xe4>
     376:	84 2b       	or	r24, r20
     378:	8c 93       	st	X, r24


     37a:	26 96       	adiw	r28, 0x06	; 6
     37c:	0f b6       	in	r0, 0x3f	; 63
     37e:	f8 94       	cli
     380:	de bf       	out	0x3e, r29	; 62
     382:	0f be       	out	0x3f, r0	; 63
     384:	cd bf       	out	0x3d, r28	; 61
     386:	cf 91       	pop	r28
     388:	df 91       	pop	r29
     38a:	08 95       	ret

0000038c <_ZN5PCInt15manager_handlerEv>:
     38c:	df 93       	push	r29
     38e:	cf 93       	push	r28
     390:	00 d0       	rcall	.+0      	; 0x392 <_ZN5PCInt15manager_handlerEv+0x6>
     392:	00 d0       	rcall	.+0      	; 0x394 <_ZN5PCInt15manager_handlerEv+0x8>
     394:	cd b7       	in	r28, 0x3d	; 61
     396:	de b7       	in	r29, 0x3e	; 62
     398:	80 91 c6 02 	lds	r24, 0x02C6
     39c:	88 23       	and	r24, r24
     39e:	69 f1       	breq	.+90     	; 0x3fa <_ZN5PCInt15manager_handlerEv+0x6e>
     3a0:	1e 82       	std	Y+6, r1	; 0x06
     3a2:	1d 82       	std	Y+5, r1	; 0x05
     3a4:	25 c0       	rjmp	.+74     	; 0x3f0 <_ZN5PCInt15manager_handlerEv+0x64>
     3a6:	eb e6       	ldi	r30, 0x6B	; 107
     3a8:	f0 e0       	ldi	r31, 0x00	; 0
     3aa:	80 81       	ld	r24, Z
     3ac:	88 2f       	mov	r24, r24
     3ae:	90 e0       	ldi	r25, 0x00	; 0
     3b0:	0d 80       	ldd	r0, Y+5	; 0x05
     3b2:	02 c0       	rjmp	.+4      	; 0x3b8 <_ZN5PCInt15manager_handlerEv+0x2c>
     3b4:	95 95       	asr	r25
     3b6:	87 95       	ror	r24
     3b8:	0a 94       	dec	r0
     3ba:	e2 f7       	brpl	.-8      	; 0x3b4 <_ZN5PCInt15manager_handlerEv+0x28>
     3bc:	81 70       	andi	r24, 0x01	; 1
     3be:	90 70       	andi	r25, 0x00	; 0
     3c0:	88 23       	and	r24, r24
     3c2:	89 f0       	breq	.+34     	; 0x3e6 <_ZN5PCInt15manager_handlerEv+0x5a>
     3c4:	8d 81       	ldd	r24, Y+5	; 0x05
     3c6:	ba de       	rcall	.-652    	; 0x13c <_ZN5PCInt13pcint_handlerEh>
     3c8:	81 e0       	ldi	r24, 0x01	; 1
     3ca:	90 e0       	ldi	r25, 0x00	; 0
     3cc:	0d 80       	ldd	r0, Y+5	; 0x05
     3ce:	02 c0       	rjmp	.+4      	; 0x3d4 <_ZN5PCInt15manager_handlerEv+0x48>
     3d0:	88 0f       	add	r24, r24
     3d2:	99 1f       	adc	r25, r25
     3d4:	0a 94       	dec	r0
     3d6:	e2 f7       	brpl	.-8      	; 0x3d0 <_ZN5PCInt15manager_handlerEv+0x44>
     3d8:	98 2f       	mov	r25, r24
     3da:	90 95       	com	r25
     3dc:	80 91 c6 02 	lds	r24, 0x02C6
     3e0:	89 23       	and	r24, r25
     3e2:	80 93 c6 02 	sts	0x02C6, r24
     3e6:	8d 81       	ldd	r24, Y+5	; 0x05
     3e8:	9e 81       	ldd	r25, Y+6	; 0x06
     3ea:	01 96       	adiw	r24, 0x01	; 1
     3ec:	9e 83       	std	Y+6, r25	; 0x06
     3ee:	8d 83       	std	Y+5, r24	; 0x05
     3f0:	8d 81       	ldd	r24, Y+5	; 0x05
     3f2:	9e 81       	ldd	r25, Y+6	; 0x06
     3f4:	88 30       	cpi	r24, 0x08	; 8
     3f6:	91 05       	cpc	r25, r1
     3f8:	b4 f2       	brlt	.-84     	; 0x3a6 <_ZN5PCInt15manager_handlerEv+0x1a>
     3fa:	80 91 c7 02 	lds	r24, 0x02C7
     3fe:	88 23       	and	r24, r24
     400:	71 f1       	breq	.+92     	; 0x45e <_ZN5PCInt15manager_handlerEv+0xd2>
     402:	1c 82       	std	Y+4, r1	; 0x04
     404:	1b 82       	std	Y+3, r1	; 0x03
     406:	26 c0       	rjmp	.+76     	; 0x454 <_ZN5PCInt15manager_handlerEv+0xc8>
     408:	ec e6       	ldi	r30, 0x6C	; 108
     40a:	f0 e0       	ldi	r31, 0x00	; 0
     40c:	80 81       	ld	r24, Z
     40e:	88 2f       	mov	r24, r24
     410:	90 e0       	ldi	r25, 0x00	; 0
     412:	0b 80       	ldd	r0, Y+3	; 0x03
     414:	02 c0       	rjmp	.+4      	; 0x41a <_ZN5PCInt15manager_handlerEv+0x8e>
     416:	95 95       	asr	r25
     418:	87 95       	ror	r24
     41a:	0a 94       	dec	r0
     41c:	e2 f7       	brpl	.-8      	; 0x416 <_ZN5PCInt15manager_handlerEv+0x8a>
     41e:	81 70       	andi	r24, 0x01	; 1
     420:	90 70       	andi	r25, 0x00	; 0
     422:	88 23       	and	r24, r24
     424:	91 f0       	breq	.+36     	; 0x44a <_ZN5PCInt15manager_handlerEv+0xbe>
     426:	8b 81       	ldd	r24, Y+3	; 0x03
     428:	88 5f       	subi	r24, 0xF8	; 248
     42a:	88 de       	rcall	.-752    	; 0x13c <_ZN5PCInt13pcint_handlerEh>
     42c:	81 e0       	ldi	r24, 0x01	; 1
     42e:	90 e0       	ldi	r25, 0x00	; 0
     430:	0b 80       	ldd	r0, Y+3	; 0x03
     432:	02 c0       	rjmp	.+4      	; 0x438 <_ZN5PCInt15manager_handlerEv+0xac>
     434:	88 0f       	add	r24, r24
     436:	99 1f       	adc	r25, r25
     438:	0a 94       	dec	r0
     43a:	e2 f7       	brpl	.-8      	; 0x434 <_ZN5PCInt15manager_handlerEv+0xa8>
     43c:	98 2f       	mov	r25, r24
     43e:	90 95       	com	r25
     440:	80 91 c7 02 	lds	r24, 0x02C7
     444:	89 23       	and	r24, r25
     446:	80 93 c7 02 	sts	0x02C7, r24
     44a:	8b 81       	ldd	r24, Y+3	; 0x03
     44c:	9c 81       	ldd	r25, Y+4	; 0x04
     44e:	01 96       	adiw	r24, 0x01	; 1
     450:	9c 83       	std	Y+4, r25	; 0x04
     452:	8b 83       	std	Y+3, r24	; 0x03
     454:	8b 81       	ldd	r24, Y+3	; 0x03
     456:	9c 81       	ldd	r25, Y+4	; 0x04
     458:	88 30       	cpi	r24, 0x08	; 8
     45a:	91 05       	cpc	r25, r1
     45c:	ac f2       	brlt	.-86     	; 0x408 <_ZN5PCInt15manager_handlerEv+0x7c>
     45e:	80 91 c8 02 	lds	r24, 0x02C8
     462:	88 23       	and	r24, r24
     464:	71 f1       	breq	.+92     	; 0x4c2 <_ZN5PCInt15manager_handlerEv+0x136>
     466:	1a 82       	std	Y+2, r1	; 0x02
     468:	19 82       	std	Y+1, r1	; 0x01
     46a:	26 c0       	rjmp	.+76     	; 0x4b8 <_ZN5PCInt15manager_handlerEv+0x12c>
     46c:	ed e6       	ldi	r30, 0x6D	; 109
     46e:	f0 e0       	ldi	r31, 0x00	; 0
     470:	80 81       	ld	r24, Z
     472:	88 2f       	mov	r24, r24
     474:	90 e0       	ldi	r25, 0x00	; 0
     476:	09 80       	ldd	r0, Y+1	; 0x01
     478:	02 c0       	rjmp	.+4      	; 0x47e <_ZN5PCInt15manager_handlerEv+0xf2>
     47a:	95 95       	asr	r25
     47c:	87 95       	ror	r24
     47e:	0a 94       	dec	r0
     480:	e2 f7       	brpl	.-8      	; 0x47a <_ZN5PCInt15manager_handlerEv+0xee>
     482:	81 70       	andi	r24, 0x01	; 1
     484:	90 70       	andi	r25, 0x00	; 0
     486:	88 23       	and	r24, r24
     488:	91 f0       	breq	.+36     	; 0x4ae <_ZN5PCInt15manager_handlerEv+0x122>
     48a:	89 81       	ldd	r24, Y+1	; 0x01
     48c:	80 5f       	subi	r24, 0xF0	; 240
     48e:	56 de       	rcall	.-852    	; 0x13c <_ZN5PCInt13pcint_handlerEh>
     490:	81 e0       	ldi	r24, 0x01	; 1
     492:	90 e0       	ldi	r25, 0x00	; 0
     494:	09 80       	ldd	r0, Y+1	; 0x01
     496:	02 c0       	rjmp	.+4      	; 0x49c <_ZN5PCInt15manager_handlerEv+0x110>
     498:	88 0f       	add	r24, r24
     49a:	99 1f       	adc	r25, r25
     49c:	0a 94       	dec	r0
     49e:	e2 f7       	brpl	.-8      	; 0x498 <_ZN5PCInt15manager_handlerEv+0x10c>
     4a0:	98 2f       	mov	r25, r24
     4a2:	90 95       	com	r25
     4a4:	80 91 c8 02 	lds	r24, 0x02C8
     4a8:	89 23       	and	r24, r25
     4aa:	80 93 c8 02 	sts	0x02C8, r24
     4ae:	89 81       	ldd	r24, Y+1	; 0x01
     4b0:	9a 81       	ldd	r25, Y+2	; 0x02
     4b2:	01 96       	adiw	r24, 0x01	; 1
     4b4:	9a 83       	std	Y+2, r25	; 0x02
     4b6:	89 83       	std	Y+1, r24	; 0x01
     4b8:	89 81       	ldd	r24, Y+1	; 0x01
     4ba:	9a 81       	ldd	r25, Y+2	; 0x02
     4bc:	88 30       	cpi	r24, 0x08	; 8
     4be:	91 05       	cpc	r25, r1
     4c0:	ac f2       	brlt	.-86     	; 0x46c <_ZN5PCInt15manager_handlerEv+0xe0>
     4c2:	26 96       	adiw	r28, 0x06	; 6
     4c4:	0f b6       	in	r0, 0x3f	; 63
     4c6:	f8 94       	cli
     4c8:	de bf       	out	0x3e, r29	; 62
     4ca:	0f be       	out	0x3f, r0	; 63
     4cc:	cd bf       	out	0x3d, r28	; 61
     4ce:	cf 91       	pop	r28
     4d0:	df 91       	pop	r29
     4d2:	08 95       	ret

000004d4 <__vector_9>:
     4d4:	1f 92       	push	r1
     4d6:	0f 92       	push	r0
     4d8:	0f b6       	in	r0, 0x3f	; 63
     4da:	0f 92       	push	r0
     4dc:	00 90 5b 00 	lds	r0, 0x005B
     4e0:	0f 92       	push	r0
     4e2:	11 24       	eor	r1, r1
     4e4:	2f 93       	push	r18
     4e6:	3f 93       	push	r19
     4e8:	4f 93       	push	r20
     4ea:	5f 93       	push	r21
     4ec:	6f 93       	push	r22
     4ee:	7f 93       	push	r23
     4f0:	8f 93       	push	r24
     4f2:	9f 93       	push	r25
     4f4:	af 93       	push	r26
     4f6:	bf 93       	push	r27
     4f8:	ef 93       	push	r30
     4fa:	ff 93       	push	r31
     4fc:	df 93       	push	r29
     4fe:	cf 93       	push	r28
     500:	cd b7       	in	r28, 0x3d	; 61
     502:	de b7       	in	r29, 0x3e	; 62
     504:	eb e6       	ldi	r30, 0x6B	; 107
     506:	f0 e0       	ldi	r31, 0x00	; 0
     508:	90 81       	ld	r25, Z
     50a:	e3 e2       	ldi	r30, 0x23	; 35
     50c:	f0 e0       	ldi	r31, 0x00	; 0
     50e:	80 81       	ld	r24, Z
     510:	98 23       	and	r25, r24
     512:	80 e0       	ldi	r24, 0x00	; 0
     514:	69 2f       	mov	r22, r25
     516:	91 de       	rcall	.-734    	; 0x23a <_ZN5PCInt5set_fEhh>
     518:	cf 91       	pop	r28
     51a:	df 91       	pop	r29
     51c:	ff 91       	pop	r31
     51e:	ef 91       	pop	r30
     520:	bf 91       	pop	r27
     522:	af 91       	pop	r26
     524:	9f 91       	pop	r25
     526:	8f 91       	pop	r24
     528:	7f 91       	pop	r23
     52a:	6f 91       	pop	r22
     52c:	5f 91       	pop	r21
     52e:	4f 91       	pop	r20
     530:	3f 91       	pop	r19
     532:	2f 91       	pop	r18
     534:	0f 90       	pop	r0
     536:	00 92 5b 00 	sts	0x005B, r0
     53a:	0f 90       	pop	r0
     53c:	0f be       	out	0x3f, r0	; 63
     53e:	0f 90       	pop	r0
     540:	1f 90       	pop	r1
     542:	18 95       	reti

00000544 <__vector_10>:
     544:	1f 92       	push	r1
     546:	0f 92       	push	r0
     548:	0f b6       	in	r0, 0x3f	; 63
     54a:	0f 92       	push	r0
     54c:	00 90 5b 00 	lds	r0, 0x005B
     550:	0f 92       	push	r0
     552:	11 24       	eor	r1, r1
     554:	2f 93       	push	r18
     556:	3f 93       	push	r19
     558:	4f 93       	push	r20
     55a:	5f 93       	push	r21
     55c:	6f 93       	push	r22
     55e:	7f 93       	push	r23
     560:	8f 93       	push	r24
     562:	9f 93       	push	r25
     564:	af 93       	push	r26
     566:	bf 93       	push	r27
     568:	ef 93       	push	r30
     56a:	ff 93       	push	r31
     56c:	df 93       	push	r29
     56e:	cf 93       	push	r28
     570:	cd b7       	in	r28, 0x3d	; 61
     572:	de b7       	in	r29, 0x3e	; 62
     574:	e3 e0       	ldi	r30, 0x03	; 3
     576:	f1 e0       	ldi	r31, 0x01	; 1
     578:	90 81       	ld	r25, Z
     57a:	81 e0       	ldi	r24, 0x01	; 1
     57c:	69 2f       	mov	r22, r25
     57e:	5d de       	rcall	.-838    	; 0x23a <_ZN5PCInt5set_fEhh>
     580:	cf 91       	pop	r28
     582:	df 91       	pop	r29
     584:	ff 91       	pop	r31
     586:	ef 91       	pop	r30
     588:	bf 91       	pop	r27
     58a:	af 91       	pop	r26
     58c:	9f 91       	pop	r25
     58e:	8f 91       	pop	r24
     590:	7f 91       	pop	r23
     592:	6f 91       	pop	r22
     594:	5f 91       	pop	r21
     596:	4f 91       	pop	r20
     598:	3f 91       	pop	r19
     59a:	2f 91       	pop	r18
     59c:	0f 90       	pop	r0
     59e:	00 92 5b 00 	sts	0x005B, r0
     5a2:	0f 90       	pop	r0
     5a4:	0f be       	out	0x3f, r0	; 63
     5a6:	0f 90       	pop	r0
     5a8:	1f 90       	pop	r1
     5aa:	18 95       	reti

000005ac <__vector_11>:
     5ac:	1f 92       	push	r1
     5ae:	0f 92       	push	r0
     5b0:	0f b6       	in	r0, 0x3f	; 63
     5b2:	0f 92       	push	r0
     5b4:	00 90 5b 00 	lds	r0, 0x005B
     5b8:	0f 92       	push	r0
     5ba:	11 24       	eor	r1, r1
     5bc:	2f 93       	push	r18
     5be:	3f 93       	push	r19
     5c0:	4f 93       	push	r20
     5c2:	5f 93       	push	r21
     5c4:	6f 93       	push	r22
     5c6:	7f 93       	push	r23
     5c8:	8f 93       	push	r24
     5ca:	9f 93       	push	r25
     5cc:	af 93       	push	r26
     5ce:	bf 93       	push	r27
     5d0:	ef 93       	push	r30
     5d2:	ff 93       	push	r31
     5d4:	df 93       	push	r29
     5d6:	cf 93       	push	r28
     5d8:	cd b7       	in	r28, 0x3d	; 61
     5da:	de b7       	in	r29, 0x3e	; 62
     5dc:	ed e6       	ldi	r30, 0x6D	; 109
     5de:	f0 e0       	ldi	r31, 0x00	; 0
     5e0:	90 81       	ld	r25, Z
     5e2:	e6 e0       	ldi	r30, 0x06	; 6
     5e4:	f1 e0       	ldi	r31, 0x01	; 1
     5e6:	80 81       	ld	r24, Z
     5e8:	98 23       	and	r25, r24
     5ea:	82 e0       	ldi	r24, 0x02	; 2
     5ec:	69 2f       	mov	r22, r25
     5ee:	25 de       	rcall	.-950    	; 0x23a <_ZN5PCInt5set_fEhh>
     5f0:	cf 91       	pop	r28
     5f2:	df 91       	pop	r29
     5f4:	ff 91       	pop	r31
     5f6:	ef 91       	pop	r30
     5f8:	bf 91       	pop	r27
     5fa:	af 91       	pop	r26
     5fc:	9f 91       	pop	r25
     5fe:	8f 91       	pop	r24
     600:	7f 91       	pop	r23
     602:	6f 91       	pop	r22
     604:	5f 91       	pop	r21
     606:	4f 91       	pop	r20
     608:	3f 91       	pop	r19
     60a:	2f 91       	pop	r18
     60c:	0f 90       	pop	r0
     60e:	00 92 5b 00 	sts	0x005B, r0
     612:	0f 90       	pop	r0
     614:	0f be       	out	0x3f, r0	; 63
     616:	0f 90       	pop	r0
     618:	1f 90       	pop	r1
     61a:	18 95       	reti

0000061c <_ZN9SingletonI4UARTEC2Ev>:

template<typename T>

class Singleton {
public:
    Singleton() { _singleton = static_cast<T*>(this); }
     61c:	df 93       	push	r29
     61e:	cf 93       	push	r28
     620:	0f 92       	push	r0
     622:	0f 92       	push	r0
     624:	cd b7       	in	r28, 0x3d	; 61
     626:	de b7       	in	r29, 0x3e	; 62
     628:	9a 83       	std	Y+2, r25	; 0x02
     62a:	89 83       	std	Y+1, r24	; 0x01
     62c:	89 81       	ldd	r24, Y+1	; 0x01
     62e:	9a 81       	ldd	r25, Y+2	; 0x02
     630:	90 93 ca 02 	sts	0x02CA, r25
     634:	80 93 c9 02 	sts	0x02C9, r24
     638:	0f 90       	pop	r0
     63a:	0f 90       	pop	r0
     63c:	cf 91       	pop	r28
     63e:	df 91       	pop	r29
     640:	08 95       	ret

00000642 <_ZN9SingletonI4UARTED2Ev>:
    ~Singleton() { _singleton = 0; }
     642:	df 93       	push	r29
     644:	cf 93       	push	r28
     646:	0f 92       	push	r0
     648:	0f 92       	push	r0
     64a:	cd b7       	in	r28, 0x3d	; 61
     64c:	de b7       	in	r29, 0x3e	; 62
     64e:	9a 83       	std	Y+2, r25	; 0x02
     650:	89 83       	std	Y+1, r24	; 0x01
     652:	10 92 ca 02 	sts	0x02CA, r1
     656:	10 92 c9 02 	sts	0x02C9, r1
     65a:	0f 90       	pop	r0
     65c:	0f 90       	pop	r0
     65e:	cf 91       	pop	r28
     660:	df 91       	pop	r29
     662:	08 95       	ret

00000664 <_ZN4UARTD1Ev>:
	//_newdata = false;
	//_rxbuffer = 0;
	//_txbuffer = 0;
}

UART::~UART() {
     664:	df 93       	push	r29
     666:	cf 93       	push	r28
     668:	0f 92       	push	r0
     66a:	0f 92       	push	r0
     66c:	cd b7       	in	r28, 0x3d	; 61
     66e:	de b7       	in	r29, 0x3e	; 62
     670:	9a 83       	std	Y+2, r25	; 0x02
     672:	89 83       	std	Y+1, r24	; 0x01
}
     674:	89 81       	ldd	r24, Y+1	; 0x01
     676:	9a 81       	ldd	r25, Y+2	; 0x02
     678:	e4 df       	rcall	.-56     	; 0x642 <_ZN9SingletonI4UARTED2Ev>
     67a:	0f 90       	pop	r0
     67c:	0f 90       	pop	r0
     67e:	cf 91       	pop	r28
     680:	df 91       	pop	r29
     682:	08 95       	ret

00000684 <_ZN4FIFOIhLh64EEC1Ev>:
#define FIFO_H_

template <typename TYPE, uint8_t SIZE> class FIFO {

public:
	FIFO() {
     684:	df 93       	push	r29
     686:	cf 93       	push	r28
     688:	0f 92       	push	r0
     68a:	0f 92       	push	r0
     68c:	cd b7       	in	r28, 0x3d	; 61
     68e:	de b7       	in	r29, 0x3e	; 62
     690:	9a 83       	std	Y+2, r25	; 0x02
     692:	89 83       	std	Y+1, r24	; 0x01
		_in = _out = _last = 0;
     694:	89 81       	ldd	r24, Y+1	; 0x01
     696:	9a 81       	ldd	r25, Y+2	; 0x02
     698:	fc 01       	movw	r30, r24
     69a:	ee 5b       	subi	r30, 0xBE	; 190
     69c:	ff 4f       	sbci	r31, 0xFF	; 255
     69e:	10 82       	st	Z, r1
     6a0:	89 81       	ldd	r24, Y+1	; 0x01
     6a2:	9a 81       	ldd	r25, Y+2	; 0x02
     6a4:	fc 01       	movw	r30, r24
     6a6:	ee 5b       	subi	r30, 0xBE	; 190
     6a8:	ff 4f       	sbci	r31, 0xFF	; 255
     6aa:	20 81       	ld	r18, Z
     6ac:	89 81       	ldd	r24, Y+1	; 0x01
     6ae:	9a 81       	ldd	r25, Y+2	; 0x02
     6b0:	fc 01       	movw	r30, r24
     6b2:	ef 5b       	subi	r30, 0xBF	; 191
     6b4:	ff 4f       	sbci	r31, 0xFF	; 255
     6b6:	20 83       	st	Z, r18
     6b8:	89 81       	ldd	r24, Y+1	; 0x01
     6ba:	9a 81       	ldd	r25, Y+2	; 0x02
     6bc:	fc 01       	movw	r30, r24
     6be:	ef 5b       	subi	r30, 0xBF	; 191
     6c0:	ff 4f       	sbci	r31, 0xFF	; 255
     6c2:	20 81       	ld	r18, Z
     6c4:	89 81       	ldd	r24, Y+1	; 0x01
     6c6:	9a 81       	ldd	r25, Y+2	; 0x02
     6c8:	fc 01       	movw	r30, r24
     6ca:	e0 5c       	subi	r30, 0xC0	; 192
     6cc:	ff 4f       	sbci	r31, 0xFF	; 255
     6ce:	20 83       	st	Z, r18
	}
     6d0:	0f 90       	pop	r0
     6d2:	0f 90       	pop	r0
     6d4:	cf 91       	pop	r28
     6d6:	df 91       	pop	r29
     6d8:	08 95       	ret

000006da <_ZN4UARTC1Ejhhhh>:
 *      Author: guh86
 */

#include "UART.h"

UART::UART(uint16_t baud, uint8_t _databit, uint8_t _parity, uint8_t _stopbit, uint8_t _speed) {
     6da:	ef 92       	push	r14
     6dc:	0f 93       	push	r16
     6de:	1f 93       	push	r17
     6e0:	df 93       	push	r29
     6e2:	cf 93       	push	r28
     6e4:	cd b7       	in	r28, 0x3d	; 61
     6e6:	de b7       	in	r29, 0x3e	; 62
     6e8:	28 97       	sbiw	r28, 0x08	; 8
     6ea:	0f b6       	in	r0, 0x3f	; 63
     6ec:	f8 94       	cli
     6ee:	de bf       	out	0x3e, r29	; 62
     6f0:	0f be       	out	0x3f, r0	; 63
     6f2:	cd bf       	out	0x3d, r28	; 61
     6f4:	9a 83       	std	Y+2, r25	; 0x02
     6f6:	89 83       	std	Y+1, r24	; 0x01
     6f8:	7c 83       	std	Y+4, r23	; 0x04
     6fa:	6b 83       	std	Y+3, r22	; 0x03
     6fc:	4d 83       	std	Y+5, r20	; 0x05
     6fe:	2e 83       	std	Y+6, r18	; 0x06
     700:	0f 83       	std	Y+7, r16	; 0x07
     702:	e8 86       	std	Y+8, r14	; 0x08
     704:	89 81       	ldd	r24, Y+1	; 0x01
     706:	9a 81       	ldd	r25, Y+2	; 0x02
     708:	89 df       	rcall	.-238    	; 0x61c <_ZN9SingletonI4UARTEC2Ev>
     70a:	89 81       	ldd	r24, Y+1	; 0x01
     70c:	9a 81       	ldd	r25, Y+2	; 0x02
     70e:	ba df       	rcall	.-140    	; 0x684 <_ZN4FIFOIhLh64EEC1Ev>
     710:	89 81       	ldd	r24, Y+1	; 0x01
     712:	9a 81       	ldd	r25, Y+2	; 0x02
     714:	8d 5b       	subi	r24, 0xBD	; 189
     716:	9f 4f       	sbci	r25, 0xFF	; 255
     718:	b5 df       	rcall	.-150    	; 0x684 <_ZN4FIFOIhLh64EEC1Ev>
     71a:	88 85       	ldd	r24, Y+8	; 0x08
     71c:	88 23       	and	r24, r24
     71e:	a9 f4       	brne	.+42     	; 0x74a <_ZN4UARTC1Ejhhhh+0x70>
	if( _speed == UART::slow) UBRR0 = F_CPU/16/baud-1; //configura o baudrate
     720:	04 ec       	ldi	r16, 0xC4	; 196
     722:	10 e0       	ldi	r17, 0x00	; 0
     724:	8b 81       	ldd	r24, Y+3	; 0x03
     726:	9c 81       	ldd	r25, Y+4	; 0x04
     728:	9c 01       	movw	r18, r24
     72a:	40 e0       	ldi	r20, 0x00	; 0
     72c:	50 e0       	ldi	r21, 0x00	; 0
     72e:	80 e4       	ldi	r24, 0x40	; 64
     730:	92 e4       	ldi	r25, 0x42	; 66
     732:	af e0       	ldi	r26, 0x0F	; 15
     734:	b0 e0       	ldi	r27, 0x00	; 0
     736:	bc 01       	movw	r22, r24
     738:	cd 01       	movw	r24, r26
     73a:	45 d4       	rcall	.+2186   	; 0xfc6 <__udivmodsi4>
     73c:	da 01       	movw	r26, r20
     73e:	c9 01       	movw	r24, r18
     740:	01 97       	sbiw	r24, 0x01	; 1
     742:	f8 01       	movw	r30, r16
     744:	91 83       	std	Z+1, r25	; 0x01
     746:	80 83       	st	Z, r24
     748:	14 c0       	rjmp	.+40     	; 0x772 <_ZN4UARTC1Ejhhhh+0x98>
     74a:	04 ec       	ldi	r16, 0xC4	; 196
     74c:	10 e0       	ldi	r17, 0x00	; 0
     74e:	8b 81       	ldd	r24, Y+3	; 0x03
     750:	9c 81       	ldd	r25, Y+4	; 0x04
	else UBRR0 = F_CPU/8/baud-1;
     752:	9c 01       	movw	r18, r24
     754:	40 e0       	ldi	r20, 0x00	; 0
     756:	50 e0       	ldi	r21, 0x00	; 0
     758:	80 e8       	ldi	r24, 0x80	; 128
     75a:	94 e8       	ldi	r25, 0x84	; 132
     75c:	ae e1       	ldi	r26, 0x1E	; 30
     75e:	b0 e0       	ldi	r27, 0x00	; 0
     760:	bc 01       	movw	r22, r24
     762:	cd 01       	movw	r24, r26
     764:	30 d4       	rcall	.+2144   	; 0xfc6 <__udivmodsi4>
     766:	da 01       	movw	r26, r20
     768:	c9 01       	movw	r24, r18
     76a:	01 97       	sbiw	r24, 0x01	; 1
     76c:	f8 01       	movw	r30, r16
     76e:	91 83       	std	Z+1, r25	; 0x01
     770:	80 83       	st	Z, r24
     772:	e1 ec       	ldi	r30, 0xC1	; 193
     774:	f0 e0       	ldi	r31, 0x00	; 0
     776:	88 e1       	ldi	r24, 0x18	; 24
     778:	80 83       	st	Z, r24
     77a:	a2 ec       	ldi	r26, 0xC2	; 194
	UCSR0B = _BV(RXEN0)|_BV(TXEN0);			//habilita tx e rx do registrador B
     77c:	b0 e0       	ldi	r27, 0x00	; 0
     77e:	e2 ec       	ldi	r30, 0xC2	; 194
     780:	f0 e0       	ldi	r31, 0x00	; 0
     782:	80 81       	ld	r24, Z
	UCSR0C |= _databit | _parity | _stopbit;//define formato do frame com 8 bits e 2 stop bits
     784:	28 2f       	mov	r18, r24
     786:	9d 81       	ldd	r25, Y+5	; 0x05
     788:	8e 81       	ldd	r24, Y+6	; 0x06
     78a:	89 2b       	or	r24, r25
     78c:	98 2f       	mov	r25, r24
     78e:	8f 81       	ldd	r24, Y+7	; 0x07
     790:	89 2b       	or	r24, r25
     792:	82 2b       	or	r24, r18
     794:	8c 93       	st	X, r24
     796:	a1 ec       	ldi	r26, 0xC1	; 193
     798:	b0 e0       	ldi	r27, 0x00	; 0
     79a:	e1 ec       	ldi	r30, 0xC1	; 193
     79c:	f0 e0       	ldi	r31, 0x00	; 0
     79e:	80 81       	ld	r24, Z
	UCSR0B |= _BV(RXCIE0);
     7a0:	80 68       	ori	r24, 0x80	; 128
     7a2:	8c 93       	st	X, r24
     7a4:	a0 ec       	ldi	r26, 0xC0	; 192
     7a6:	b0 e0       	ldi	r27, 0x00	; 0
     7a8:	e0 ec       	ldi	r30, 0xC0	; 192
     7aa:	f0 e0       	ldi	r31, 0x00	; 0
     7ac:	90 81       	ld	r25, Z
	UCSR0A |= _speed; //verificar se precisa????
     7ae:	88 85       	ldd	r24, Y+8	; 0x08
     7b0:	89 2b       	or	r24, r25
     7b2:	8c 93       	st	X, r24
     7b4:	28 96       	adiw	r28, 0x08	; 8
     7b6:	0f b6       	in	r0, 0x3f	; 63
     7b8:	f8 94       	cli
     7ba:	de bf       	out	0x3e, r29	; 62
     7bc:	0f be       	out	0x3f, r0	; 63
	//_newdata = false;
	//_rxbuffer = 0;
	//_txbuffer = 0;
}
     7be:	cd bf       	out	0x3d, r28	; 61
     7c0:	cf 91       	pop	r28
     7c2:	df 91       	pop	r29
     7c4:	1f 91       	pop	r17
     7c6:	0f 91       	pop	r16
     7c8:	ef 90       	pop	r14
     7ca:	08 95       	ret

000007cc <_ZN9SingletonI4UARTE4selfEv>:

    static T * self() { return _singleton; }
     7cc:	df 93       	push	r29
     7ce:	cf 93       	push	r28
     7d0:	cd b7       	in	r28, 0x3d	; 61
     7d2:	de b7       	in	r29, 0x3e	; 62
     7d4:	80 91 c9 02 	lds	r24, 0x02C9
     7d8:	90 91 ca 02 	lds	r25, 0x02CA
     7dc:	cf 91       	pop	r28
     7de:	df 91       	pop	r29
     7e0:	08 95       	ret

000007e2 <_ZN4FIFOIhLh64EE4pushEh>:

	bool push(TYPE data){
     7e2:	df 93       	push	r29
     7e4:	cf 93       	push	r28
     7e6:	00 d0       	rcall	.+0      	; 0x7e8 <_ZN4FIFOIhLh64EE4pushEh+0x6>
     7e8:	0f 92       	push	r0
     7ea:	cd b7       	in	r28, 0x3d	; 61
     7ec:	de b7       	in	r29, 0x3e	; 62
     7ee:	9a 83       	std	Y+2, r25	; 0x02
     7f0:	89 83       	std	Y+1, r24	; 0x01
     7f2:	6b 83       	std	Y+3, r22	; 0x03
		if (_last >= SIZE){
     7f4:	89 81       	ldd	r24, Y+1	; 0x01
     7f6:	9a 81       	ldd	r25, Y+2	; 0x02
     7f8:	fc 01       	movw	r30, r24
     7fa:	ee 5b       	subi	r30, 0xBE	; 190
     7fc:	ff 4f       	sbci	r31, 0xFF	; 255
     7fe:	80 81       	ld	r24, Z
     800:	80 34       	cpi	r24, 0x40	; 64
     802:	18 f0       	brcs	.+6      	; 0x80a <_ZN4FIFOIhLh64EE4pushEh+0x28>
			return true;
     804:	81 e0       	ldi	r24, 0x01	; 1
     806:	8c 83       	std	Y+4, r24	; 0x04
     808:	32 c0       	rjmp	.+100    	; 0x86e <_ZN4FIFOIhLh64EE4pushEh+0x8c>
		}
		_buffer[_in] = data;
     80a:	89 81       	ldd	r24, Y+1	; 0x01
     80c:	9a 81       	ldd	r25, Y+2	; 0x02
     80e:	fc 01       	movw	r30, r24
     810:	e0 5c       	subi	r30, 0xC0	; 192
     812:	ff 4f       	sbci	r31, 0xFF	; 255
     814:	80 81       	ld	r24, Z
     816:	28 2f       	mov	r18, r24
     818:	30 e0       	ldi	r19, 0x00	; 0
     81a:	89 81       	ldd	r24, Y+1	; 0x01
     81c:	9a 81       	ldd	r25, Y+2	; 0x02
     81e:	fc 01       	movw	r30, r24
     820:	e2 0f       	add	r30, r18
     822:	f3 1f       	adc	r31, r19
     824:	8b 81       	ldd	r24, Y+3	; 0x03
     826:	80 83       	st	Z, r24
		_in = ((_in+1) % SIZE);
     828:	89 81       	ldd	r24, Y+1	; 0x01
     82a:	9a 81       	ldd	r25, Y+2	; 0x02
     82c:	fc 01       	movw	r30, r24
     82e:	e0 5c       	subi	r30, 0xC0	; 192
     830:	ff 4f       	sbci	r31, 0xFF	; 255
     832:	80 81       	ld	r24, Z
     834:	88 2f       	mov	r24, r24
     836:	90 e0       	ldi	r25, 0x00	; 0
     838:	01 96       	adiw	r24, 0x01	; 1
     83a:	20 e4       	ldi	r18, 0x40	; 64
     83c:	30 e0       	ldi	r19, 0x00	; 0
     83e:	b9 01       	movw	r22, r18
     840:	af d3       	rcall	.+1886   	; 0xfa0 <__divmodhi4>
     842:	28 2f       	mov	r18, r24
     844:	89 81       	ldd	r24, Y+1	; 0x01
     846:	9a 81       	ldd	r25, Y+2	; 0x02
     848:	fc 01       	movw	r30, r24
     84a:	e0 5c       	subi	r30, 0xC0	; 192
     84c:	ff 4f       	sbci	r31, 0xFF	; 255
     84e:	20 83       	st	Z, r18
     850:	89 81       	ldd	r24, Y+1	; 0x01
		_last ++; //incrementa a quantidade de itens na FIFO
     852:	9a 81       	ldd	r25, Y+2	; 0x02
     854:	fc 01       	movw	r30, r24
     856:	ee 5b       	subi	r30, 0xBE	; 190
     858:	ff 4f       	sbci	r31, 0xFF	; 255
     85a:	80 81       	ld	r24, Z
     85c:	28 2f       	mov	r18, r24
     85e:	2f 5f       	subi	r18, 0xFF	; 255
     860:	89 81       	ldd	r24, Y+1	; 0x01
     862:	9a 81       	ldd	r25, Y+2	; 0x02
     864:	fc 01       	movw	r30, r24
     866:	ee 5b       	subi	r30, 0xBE	; 190
     868:	ff 4f       	sbci	r31, 0xFF	; 255
     86a:	20 83       	st	Z, r18
     86c:	1c 82       	std	Y+4, r1	; 0x04
		return false;
     86e:	8c 81       	ldd	r24, Y+4	; 0x04
     870:	0f 90       	pop	r0
	}
     872:	0f 90       	pop	r0
     874:	0f 90       	pop	r0
     876:	0f 90       	pop	r0
     878:	cf 91       	pop	r28
     87a:	df 91       	pop	r29
     87c:	08 95       	ret

0000087e <_ZN4UART6rx_ISREv>:
	else return false;
	//return self()->_newdata;
}

ISR(USART0_RX_vect){UART::rx_ISR();}
void UART::rx_ISR(){
     87e:	df 93       	push	r29
     880:	cf 93       	push	r28
     882:	cd b7       	in	r28, 0x3d	; 61
     884:	de b7       	in	r29, 0x3e	; 62
	self()->rx.push(UDR0); // o push ja trata tamanho da fila;
     886:	a2 df       	rcall	.-188    	; 0x7cc <_ZN9SingletonI4UARTE4selfEv>
     888:	8d 5b       	subi	r24, 0xBD	; 189
     88a:	9f 4f       	sbci	r25, 0xFF	; 255
     88c:	e6 ec       	ldi	r30, 0xC6	; 198
     88e:	f0 e0       	ldi	r31, 0x00	; 0
     890:	20 81       	ld	r18, Z
     892:	62 2f       	mov	r22, r18
     894:	a6 df       	rcall	.-180    	; 0x7e2 <_ZN4FIFOIhLh64EE4pushEh>
     896:	cf 91       	pop	r28
     898:	df 91       	pop	r29
	//self()->_rxbuffer = UDR0;
	//self()->_newdata = true;
}
     89a:	08 95       	ret

0000089c <__vector_25>:
	if(self()->rx.get_size() != 0) return true;
	else return false;
	//return self()->_newdata;
}

ISR(USART0_RX_vect){UART::rx_ISR();}
     89c:	1f 92       	push	r1
     89e:	0f 92       	push	r0
     8a0:	0f b6       	in	r0, 0x3f	; 63
     8a2:	0f 92       	push	r0
     8a4:	00 90 5b 00 	lds	r0, 0x005B
     8a8:	0f 92       	push	r0
     8aa:	11 24       	eor	r1, r1
     8ac:	2f 93       	push	r18
     8ae:	3f 93       	push	r19
     8b0:	4f 93       	push	r20
     8b2:	5f 93       	push	r21
     8b4:	6f 93       	push	r22
     8b6:	7f 93       	push	r23
     8b8:	8f 93       	push	r24
     8ba:	9f 93       	push	r25
     8bc:	af 93       	push	r26
     8be:	bf 93       	push	r27
     8c0:	ef 93       	push	r30
     8c2:	ff 93       	push	r31
     8c4:	df 93       	push	r29
     8c6:	cf 93       	push	r28
     8c8:	cd b7       	in	r28, 0x3d	; 61
     8ca:	de b7       	in	r29, 0x3e	; 62
     8cc:	d8 df       	rcall	.-80     	; 0x87e <_ZN4UART6rx_ISREv>
     8ce:	cf 91       	pop	r28
     8d0:	df 91       	pop	r29
     8d2:	ff 91       	pop	r31
     8d4:	ef 91       	pop	r30
     8d6:	bf 91       	pop	r27
     8d8:	af 91       	pop	r26
     8da:	9f 91       	pop	r25
     8dc:	8f 91       	pop	r24
     8de:	7f 91       	pop	r23
     8e0:	6f 91       	pop	r22
     8e2:	5f 91       	pop	r21
     8e4:	4f 91       	pop	r20
     8e6:	3f 91       	pop	r19
     8e8:	2f 91       	pop	r18
     8ea:	0f 90       	pop	r0
     8ec:	00 92 5b 00 	sts	0x005B, r0
     8f0:	0f 90       	pop	r0
     8f2:	0f be       	out	0x3f, r0	; 63
     8f4:	0f 90       	pop	r0
     8f6:	1f 90       	pop	r1
     8f8:	18 95       	reti

000008fa <_ZN4UART3putEh>:
}

UART::~UART() {
}

void UART::put(uint8_t data){ //transmissor
     8fa:	df 93       	push	r29
     8fc:	cf 93       	push	r28
     8fe:	00 d0       	rcall	.+0      	; 0x900 <_ZN4UART3putEh+0x6>
     900:	cd b7       	in	r28, 0x3d	; 61
     902:	de b7       	in	r29, 0x3e	; 62
     904:	9a 83       	std	Y+2, r25	; 0x02
     906:	89 83       	std	Y+1, r24	; 0x01
     908:	6b 83       	std	Y+3, r22	; 0x03
	self()->tx.push(data);
     90a:	60 df       	rcall	.-320    	; 0x7cc <_ZN9SingletonI4UARTE4selfEv>
     90c:	6b 81       	ldd	r22, Y+3	; 0x03
     90e:	69 df       	rcall	.-302    	; 0x7e2 <_ZN4FIFOIhLh64EE4pushEh>
     910:	a1 ec       	ldi	r26, 0xC1	; 193
     912:	b0 e0       	ldi	r27, 0x00	; 0
	//self()->_txbuffer = data;
	UCSR0B |= _BV(UDRIE0);
     914:	e1 ec       	ldi	r30, 0xC1	; 193
     916:	f0 e0       	ldi	r31, 0x00	; 0
     918:	80 81       	ld	r24, Z
     91a:	80 62       	ori	r24, 0x20	; 32
     91c:	8c 93       	st	X, r24
     91e:	0f 90       	pop	r0
     920:	0f 90       	pop	r0
}
     922:	0f 90       	pop	r0
     924:	cf 91       	pop	r28
     926:	df 91       	pop	r29
     928:	08 95       	ret

0000092a <_ZN4FIFOIhLh64EE3popEv>:

	TYPE pop(){
     92a:	df 93       	push	r29
     92c:	cf 93       	push	r28
     92e:	00 d0       	rcall	.+0      	; 0x930 <_ZN4FIFOIhLh64EE3popEv+0x6>
     930:	0f 92       	push	r0
     932:	cd b7       	in	r28, 0x3d	; 61
     934:	de b7       	in	r29, 0x3e	; 62
     936:	9b 83       	std	Y+3, r25	; 0x03
     938:	8a 83       	std	Y+2, r24	; 0x02
		if(_last == 0) return (TYPE)true;
     93a:	8a 81       	ldd	r24, Y+2	; 0x02
     93c:	9b 81       	ldd	r25, Y+3	; 0x03
     93e:	fc 01       	movw	r30, r24
     940:	ee 5b       	subi	r30, 0xBE	; 190
     942:	ff 4f       	sbci	r31, 0xFF	; 255
     944:	80 81       	ld	r24, Z
     946:	88 23       	and	r24, r24
     948:	19 f4       	brne	.+6      	; 0x950 <_ZN4FIFOIhLh64EE3popEv+0x26>
     94a:	81 e0       	ldi	r24, 0x01	; 1
     94c:	8c 83       	std	Y+4, r24	; 0x04
     94e:	33 c0       	rjmp	.+102    	; 0x9b6 <_ZN4FIFOIhLh64EE3popEv+0x8c>
		else{
			TYPE data = _buffer[_out];
     950:	8a 81       	ldd	r24, Y+2	; 0x02
     952:	9b 81       	ldd	r25, Y+3	; 0x03
     954:	fc 01       	movw	r30, r24
     956:	ef 5b       	subi	r30, 0xBF	; 191
     958:	ff 4f       	sbci	r31, 0xFF	; 255
     95a:	80 81       	ld	r24, Z
     95c:	28 2f       	mov	r18, r24
     95e:	30 e0       	ldi	r19, 0x00	; 0
     960:	8a 81       	ldd	r24, Y+2	; 0x02
     962:	9b 81       	ldd	r25, Y+3	; 0x03
     964:	fc 01       	movw	r30, r24
     966:	e2 0f       	add	r30, r18
     968:	f3 1f       	adc	r31, r19
     96a:	80 81       	ld	r24, Z
     96c:	89 83       	std	Y+1, r24	; 0x01
			_out = (_out+1) % SIZE;
     96e:	8a 81       	ldd	r24, Y+2	; 0x02
     970:	9b 81       	ldd	r25, Y+3	; 0x03
     972:	fc 01       	movw	r30, r24
     974:	ef 5b       	subi	r30, 0xBF	; 191
     976:	ff 4f       	sbci	r31, 0xFF	; 255
     978:	80 81       	ld	r24, Z
     97a:	88 2f       	mov	r24, r24
     97c:	90 e0       	ldi	r25, 0x00	; 0
     97e:	01 96       	adiw	r24, 0x01	; 1
     980:	20 e4       	ldi	r18, 0x40	; 64
     982:	30 e0       	ldi	r19, 0x00	; 0
     984:	b9 01       	movw	r22, r18
     986:	0c d3       	rcall	.+1560   	; 0xfa0 <__divmodhi4>
     988:	28 2f       	mov	r18, r24
     98a:	8a 81       	ldd	r24, Y+2	; 0x02
     98c:	9b 81       	ldd	r25, Y+3	; 0x03
     98e:	fc 01       	movw	r30, r24
     990:	ef 5b       	subi	r30, 0xBF	; 191
     992:	ff 4f       	sbci	r31, 0xFF	; 255
     994:	20 83       	st	Z, r18
     996:	8a 81       	ldd	r24, Y+2	; 0x02
			_last --;
     998:	9b 81       	ldd	r25, Y+3	; 0x03
     99a:	fc 01       	movw	r30, r24
     99c:	ee 5b       	subi	r30, 0xBE	; 190
     99e:	ff 4f       	sbci	r31, 0xFF	; 255
     9a0:	80 81       	ld	r24, Z
     9a2:	28 2f       	mov	r18, r24
     9a4:	21 50       	subi	r18, 0x01	; 1
     9a6:	8a 81       	ldd	r24, Y+2	; 0x02
     9a8:	9b 81       	ldd	r25, Y+3	; 0x03
     9aa:	fc 01       	movw	r30, r24
     9ac:	ee 5b       	subi	r30, 0xBE	; 190
     9ae:	ff 4f       	sbci	r31, 0xFF	; 255
     9b0:	20 83       	st	Z, r18
     9b2:	89 81       	ldd	r24, Y+1	; 0x01
			return data;
     9b4:	8c 83       	std	Y+4, r24	; 0x04
     9b6:	8c 81       	ldd	r24, Y+4	; 0x04
     9b8:	0f 90       	pop	r0
		}
	}
     9ba:	0f 90       	pop	r0
     9bc:	0f 90       	pop	r0
     9be:	0f 90       	pop	r0
     9c0:	cf 91       	pop	r28
     9c2:	df 91       	pop	r29
     9c4:	08 95       	ret

000009c6 <_ZN4UART6tx_ISREv>:
	//self()->_rxbuffer = UDR0;
	//self()->_newdata = true;
}

ISR(USART0_UDRE_vect){UART::tx_ISR();}
void UART::tx_ISR(){
     9c6:	0f 93       	push	r16
     9c8:	1f 93       	push	r17
     9ca:	df 93       	push	r29
     9cc:	cf 93       	push	r28
     9ce:	cd b7       	in	r28, 0x3d	; 61
     9d0:	de b7       	in	r29, 0x3e	; 62
	UDR0 = self()->tx.pop(); // pega o que a
     9d2:	06 ec       	ldi	r16, 0xC6	; 198
     9d4:	10 e0       	ldi	r17, 0x00	; 0
     9d6:	fa de       	rcall	.-524    	; 0x7cc <_ZN9SingletonI4UARTE4selfEv>
     9d8:	a8 df       	rcall	.-176    	; 0x92a <_ZN4FIFOIhLh64EE3popEv>
     9da:	f8 01       	movw	r30, r16
     9dc:	80 83       	st	Z, r24
     9de:	a1 ec       	ldi	r26, 0xC1	; 193
     9e0:	b0 e0       	ldi	r27, 0x00	; 0
	//UDR0 = self()->_txbuffer;
	UCSR0B &= ~(1<<UDRIE0);
     9e2:	e1 ec       	ldi	r30, 0xC1	; 193
     9e4:	f0 e0       	ldi	r31, 0x00	; 0
     9e6:	80 81       	ld	r24, Z
     9e8:	8f 7d       	andi	r24, 0xDF	; 223
     9ea:	8c 93       	st	X, r24
     9ec:	cf 91       	pop	r28
     9ee:	df 91       	pop	r29
}
     9f0:	1f 91       	pop	r17
     9f2:	0f 91       	pop	r16
     9f4:	08 95       	ret

000009f6 <__vector_26>:
	self()->rx.push(UDR0); // o push ja trata tamanho da fila;
	//self()->_rxbuffer = UDR0;
	//self()->_newdata = true;
}

ISR(USART0_UDRE_vect){UART::tx_ISR();}
     9f6:	1f 92       	push	r1
     9f8:	0f 92       	push	r0
     9fa:	0f b6       	in	r0, 0x3f	; 63
     9fc:	0f 92       	push	r0
     9fe:	00 90 5b 00 	lds	r0, 0x005B
     a02:	0f 92       	push	r0
     a04:	11 24       	eor	r1, r1
     a06:	2f 93       	push	r18
     a08:	3f 93       	push	r19
     a0a:	4f 93       	push	r20
     a0c:	5f 93       	push	r21
     a0e:	6f 93       	push	r22
     a10:	7f 93       	push	r23
     a12:	8f 93       	push	r24
     a14:	9f 93       	push	r25
     a16:	af 93       	push	r26
     a18:	bf 93       	push	r27
     a1a:	ef 93       	push	r30
     a1c:	ff 93       	push	r31
     a1e:	df 93       	push	r29
     a20:	cf 93       	push	r28
     a22:	cd b7       	in	r28, 0x3d	; 61
     a24:	de b7       	in	r29, 0x3e	; 62
     a26:	cf df       	rcall	.-98     	; 0x9c6 <_ZN4UART6tx_ISREv>
     a28:	cf 91       	pop	r28
     a2a:	df 91       	pop	r29
     a2c:	ff 91       	pop	r31
     a2e:	ef 91       	pop	r30
     a30:	bf 91       	pop	r27
     a32:	af 91       	pop	r26
     a34:	9f 91       	pop	r25
     a36:	8f 91       	pop	r24
     a38:	7f 91       	pop	r23
     a3a:	6f 91       	pop	r22
     a3c:	5f 91       	pop	r21
     a3e:	4f 91       	pop	r20
     a40:	3f 91       	pop	r19
     a42:	2f 91       	pop	r18
     a44:	0f 90       	pop	r0
     a46:	00 92 5b 00 	sts	0x005B, r0
     a4a:	0f 90       	pop	r0
     a4c:	0f be       	out	0x3f, r0	; 63
     a4e:	0f 90       	pop	r0
     a50:	1f 90       	pop	r1
     a52:	18 95       	reti

00000a54 <_ZN4UART8dado_getEv>:
		put(*c);
		c++;
	}
}

int UART::dado_get (){ //receptor
     a54:	df 93       	push	r29
     a56:	cf 93       	push	r28
     a58:	0f 92       	push	r0
     a5a:	0f 92       	push	r0
     a5c:	cd b7       	in	r28, 0x3d	; 61
     a5e:	de b7       	in	r29, 0x3e	; 62
     a60:	9a 83       	std	Y+2, r25	; 0x02
     a62:	89 83       	std	Y+1, r24	; 0x01
	//self()->_newdata = false;
	return self()->rx.pop();
     a64:	b3 de       	rcall	.-666    	; 0x7cc <_ZN9SingletonI4UARTE4selfEv>
     a66:	8d 5b       	subi	r24, 0xBD	; 189
     a68:	9f 4f       	sbci	r25, 0xFF	; 255
     a6a:	5f df       	rcall	.-322    	; 0x92a <_ZN4FIFOIhLh64EE3popEv>
     a6c:	88 2f       	mov	r24, r24
     a6e:	90 e0       	ldi	r25, 0x00	; 0
     a70:	0f 90       	pop	r0
     a72:	0f 90       	pop	r0
}
     a74:	cf 91       	pop	r28
     a76:	df 91       	pop	r29
     a78:	08 95       	ret

00000a7a <_ZN4FIFOIhLh64EE8get_sizeEv>:

	int get_size(){
     a7a:	df 93       	push	r29
     a7c:	cf 93       	push	r28
     a7e:	0f 92       	push	r0
     a80:	0f 92       	push	r0
     a82:	cd b7       	in	r28, 0x3d	; 61
     a84:	de b7       	in	r29, 0x3e	; 62
     a86:	9a 83       	std	Y+2, r25	; 0x02
     a88:	89 83       	std	Y+1, r24	; 0x01
		return _last;
     a8a:	89 81       	ldd	r24, Y+1	; 0x01
     a8c:	9a 81       	ldd	r25, Y+2	; 0x02
     a8e:	fc 01       	movw	r30, r24
     a90:	ee 5b       	subi	r30, 0xBE	; 190
     a92:	ff 4f       	sbci	r31, 0xFF	; 255
     a94:	80 81       	ld	r24, Z
     a96:	88 2f       	mov	r24, r24
     a98:	90 e0       	ldi	r25, 0x00	; 0
	}
     a9a:	0f 90       	pop	r0
     a9c:	0f 90       	pop	r0
     a9e:	cf 91       	pop	r28
     aa0:	df 91       	pop	r29
     aa2:	08 95       	ret

00000aa4 <_ZN4UART7hasdataEv>:

bool UART::hasdata(){
     aa4:	df 93       	push	r29
     aa6:	cf 93       	push	r28
     aa8:	00 d0       	rcall	.+0      	; 0xaaa <_ZN4UART7hasdataEv+0x6>
     aaa:	0f 92       	push	r0
     aac:	cd b7       	in	r28, 0x3d	; 61
     aae:	de b7       	in	r29, 0x3e	; 62
     ab0:	9a 83       	std	Y+2, r25	; 0x02
     ab2:	89 83       	std	Y+1, r24	; 0x01
	if(self()->rx.get_size() != 0) return true;
     ab4:	8b de       	rcall	.-746    	; 0x7cc <_ZN9SingletonI4UARTE4selfEv>
     ab6:	8d 5b       	subi	r24, 0xBD	; 189
     ab8:	9f 4f       	sbci	r25, 0xFF	; 255
     aba:	df df       	rcall	.-66     	; 0xa7a <_ZN4FIFOIhLh64EE8get_sizeEv>
     abc:	1c 82       	std	Y+4, r1	; 0x04
     abe:	00 97       	sbiw	r24, 0x00	; 0
     ac0:	11 f0       	breq	.+4      	; 0xac6 <_ZN4UART7hasdataEv+0x22>
     ac2:	81 e0       	ldi	r24, 0x01	; 1
     ac4:	8c 83       	std	Y+4, r24	; 0x04
     ac6:	8c 81       	ldd	r24, Y+4	; 0x04
     ac8:	88 23       	and	r24, r24
     aca:	19 f0       	breq	.+6      	; 0xad2 <_ZN4UART7hasdataEv+0x2e>
     acc:	81 e0       	ldi	r24, 0x01	; 1
     ace:	8b 83       	std	Y+3, r24	; 0x03
     ad0:	01 c0       	rjmp	.+2      	; 0xad4 <_ZN4UART7hasdataEv+0x30>
     ad2:	1b 82       	std	Y+3, r1	; 0x03
     ad4:	8b 81       	ldd	r24, Y+3	; 0x03
	else return false;
     ad6:	0f 90       	pop	r0
     ad8:	0f 90       	pop	r0
	//return self()->_newdata;
}
     ada:	0f 90       	pop	r0
     adc:	0f 90       	pop	r0
     ade:	cf 91       	pop	r28
     ae0:	df 91       	pop	r29
     ae2:	08 95       	ret

00000ae4 <_ZN6extInt12int0_handlerEv>:

		extInt(int_id _id, isc_t _int_config, toFuncao_t pCallback);
		~extInt();
		void enable();
		void disable();
		static void int0_handler(){ (*_pCallback_0)(); }
     ae4:	df 93       	push	r29
     ae6:	cf 93       	push	r28
     ae8:	cd b7       	in	r28, 0x3d	; 61
     aea:	de b7       	in	r29, 0x3e	; 62
     aec:	e0 91 86 02 	lds	r30, 0x0286
     af0:	f0 91 87 02 	lds	r31, 0x0287
     af4:	19 95       	eicall
     af6:	cf 91       	pop	r28
     af8:	df 91       	pop	r29
     afa:	08 95       	ret

00000afc <_ZN6extInt12int1_handlerEv>:
		static void int1_handler(){ (*_pCallback_1)(); }
     afc:	df 93       	push	r29
     afe:	cf 93       	push	r28
     b00:	cd b7       	in	r28, 0x3d	; 61
     b02:	de b7       	in	r29, 0x3e	; 62
     b04:	e0 91 88 02 	lds	r30, 0x0288
     b08:	f0 91 89 02 	lds	r31, 0x0289
     b0c:	19 95       	eicall
     b0e:	cf 91       	pop	r28
     b10:	df 91       	pop	r29
     b12:	08 95       	ret

00000b14 <_ZN6extInt12int2_handlerEv>:
		static void int2_handler(){ (*_pCallback_2)(); }
     b14:	df 93       	push	r29
     b16:	cf 93       	push	r28
     b18:	cd b7       	in	r28, 0x3d	; 61
     b1a:	de b7       	in	r29, 0x3e	; 62
     b1c:	e0 91 8a 02 	lds	r30, 0x028A
     b20:	f0 91 8b 02 	lds	r31, 0x028B
     b24:	19 95       	eicall
     b26:	cf 91       	pop	r28
     b28:	df 91       	pop	r29
     b2a:	08 95       	ret

00000b2c <_ZN6extInt12int3_handlerEv>:
		static void int3_handler(){ (*_pCallback_3)(); }
     b2c:	df 93       	push	r29
     b2e:	cf 93       	push	r28
     b30:	cd b7       	in	r28, 0x3d	; 61
     b32:	de b7       	in	r29, 0x3e	; 62
     b34:	e0 91 8c 02 	lds	r30, 0x028C
     b38:	f0 91 8d 02 	lds	r31, 0x028D
     b3c:	19 95       	eicall
     b3e:	cf 91       	pop	r28
     b40:	df 91       	pop	r29
     b42:	08 95       	ret

00000b44 <_ZN6extInt12int4_handlerEv>:
		static void int4_handler(){ (*_pCallback_4)(); }
     b44:	df 93       	push	r29
     b46:	cf 93       	push	r28
     b48:	cd b7       	in	r28, 0x3d	; 61
     b4a:	de b7       	in	r29, 0x3e	; 62
     b4c:	e0 91 8e 02 	lds	r30, 0x028E
     b50:	f0 91 8f 02 	lds	r31, 0x028F
     b54:	19 95       	eicall
     b56:	cf 91       	pop	r28
     b58:	df 91       	pop	r29
     b5a:	08 95       	ret

00000b5c <_ZN6extInt12int5_handlerEv>:
		static void int5_handler(){ (*_pCallback_5)(); }
     b5c:	df 93       	push	r29
     b5e:	cf 93       	push	r28
     b60:	cd b7       	in	r28, 0x3d	; 61
     b62:	de b7       	in	r29, 0x3e	; 62
     b64:	e0 91 90 02 	lds	r30, 0x0290
     b68:	f0 91 91 02 	lds	r31, 0x0291
     b6c:	19 95       	eicall
     b6e:	cf 91       	pop	r28
     b70:	df 91       	pop	r29
     b72:	08 95       	ret

00000b74 <_ZN6extInt12int6_handlerEv>:
		static void int6_handler(){ (*_pCallback_6)(); }
     b74:	df 93       	push	r29
     b76:	cf 93       	push	r28
     b78:	cd b7       	in	r28, 0x3d	; 61
     b7a:	de b7       	in	r29, 0x3e	; 62
     b7c:	e0 91 92 02 	lds	r30, 0x0292
     b80:	f0 91 93 02 	lds	r31, 0x0293
     b84:	19 95       	eicall
     b86:	cf 91       	pop	r28
     b88:	df 91       	pop	r29
     b8a:	08 95       	ret

00000b8c <_ZN6extInt12int7_handlerEv>:
		static void int7_handler(){ (*_pCallback_7)(); }
     b8c:	df 93       	push	r29
     b8e:	cf 93       	push	r28
     b90:	cd b7       	in	r28, 0x3d	; 61
     b92:	de b7       	in	r29, 0x3e	; 62
     b94:	e0 91 94 02 	lds	r30, 0x0294
     b98:	f0 91 95 02 	lds	r31, 0x0295
     b9c:	19 95       	eicall
     b9e:	cf 91       	pop	r28
     ba0:	df 91       	pop	r29
     ba2:	08 95       	ret

00000ba4 <__vector_1>:

};
#endif /* EXTINT_H_ */
     ba4:	1f 92       	push	r1
     ba6:	0f 92       	push	r0
     ba8:	0f b6       	in	r0, 0x3f	; 63
     baa:	0f 92       	push	r0
     bac:	00 90 5b 00 	lds	r0, 0x005B
     bb0:	0f 92       	push	r0
     bb2:	11 24       	eor	r1, r1
     bb4:	2f 93       	push	r18
     bb6:	3f 93       	push	r19
     bb8:	4f 93       	push	r20
     bba:	5f 93       	push	r21
     bbc:	6f 93       	push	r22
     bbe:	7f 93       	push	r23
     bc0:	8f 93       	push	r24
     bc2:	9f 93       	push	r25
     bc4:	af 93       	push	r26
     bc6:	bf 93       	push	r27
     bc8:	ef 93       	push	r30
     bca:	ff 93       	push	r31
     bcc:	df 93       	push	r29
     bce:	cf 93       	push	r28
     bd0:	cd b7       	in	r28, 0x3d	; 61
     bd2:	de b7       	in	r29, 0x3e	; 62
     bd4:	87 df       	rcall	.-242    	; 0xae4 <_ZN6extInt12int0_handlerEv>
     bd6:	cf 91       	pop	r28
     bd8:	df 91       	pop	r29
     bda:	ff 91       	pop	r31
     bdc:	ef 91       	pop	r30
     bde:	bf 91       	pop	r27
     be0:	af 91       	pop	r26
     be2:	9f 91       	pop	r25
     be4:	8f 91       	pop	r24
     be6:	7f 91       	pop	r23
     be8:	6f 91       	pop	r22
     bea:	5f 91       	pop	r21
     bec:	4f 91       	pop	r20
     bee:	3f 91       	pop	r19
     bf0:	2f 91       	pop	r18
     bf2:	0f 90       	pop	r0
     bf4:	00 92 5b 00 	sts	0x005B, r0
     bf8:	0f 90       	pop	r0
     bfa:	0f be       	out	0x3f, r0	; 63
     bfc:	0f 90       	pop	r0
     bfe:	1f 90       	pop	r1
     c00:	18 95       	reti

00000c02 <__vector_2>:
     c02:	1f 92       	push	r1
     c04:	0f 92       	push	r0
     c06:	0f b6       	in	r0, 0x3f	; 63
     c08:	0f 92       	push	r0
     c0a:	00 90 5b 00 	lds	r0, 0x005B
     c0e:	0f 92       	push	r0
     c10:	11 24       	eor	r1, r1
     c12:	2f 93       	push	r18
     c14:	3f 93       	push	r19
     c16:	4f 93       	push	r20
     c18:	5f 93       	push	r21
     c1a:	6f 93       	push	r22
     c1c:	7f 93       	push	r23
     c1e:	8f 93       	push	r24
     c20:	9f 93       	push	r25
     c22:	af 93       	push	r26
     c24:	bf 93       	push	r27
     c26:	ef 93       	push	r30
     c28:	ff 93       	push	r31
     c2a:	df 93       	push	r29
     c2c:	cf 93       	push	r28
     c2e:	cd b7       	in	r28, 0x3d	; 61
     c30:	de b7       	in	r29, 0x3e	; 62
     c32:	64 df       	rcall	.-312    	; 0xafc <_ZN6extInt12int1_handlerEv>
     c34:	cf 91       	pop	r28
     c36:	df 91       	pop	r29
     c38:	ff 91       	pop	r31
     c3a:	ef 91       	pop	r30
     c3c:	bf 91       	pop	r27
     c3e:	af 91       	pop	r26
     c40:	9f 91       	pop	r25
     c42:	8f 91       	pop	r24
     c44:	7f 91       	pop	r23
     c46:	6f 91       	pop	r22
     c48:	5f 91       	pop	r21
     c4a:	4f 91       	pop	r20
     c4c:	3f 91       	pop	r19
     c4e:	2f 91       	pop	r18
     c50:	0f 90       	pop	r0
     c52:	00 92 5b 00 	sts	0x005B, r0
     c56:	0f 90       	pop	r0
     c58:	0f be       	out	0x3f, r0	; 63
     c5a:	0f 90       	pop	r0
     c5c:	1f 90       	pop	r1
     c5e:	18 95       	reti

00000c60 <__vector_3>:
     c60:	1f 92       	push	r1
     c62:	0f 92       	push	r0
     c64:	0f b6       	in	r0, 0x3f	; 63
     c66:	0f 92       	push	r0
     c68:	00 90 5b 00 	lds	r0, 0x005B
     c6c:	0f 92       	push	r0
     c6e:	11 24       	eor	r1, r1
     c70:	2f 93       	push	r18
     c72:	3f 93       	push	r19
     c74:	4f 93       	push	r20
     c76:	5f 93       	push	r21
     c78:	6f 93       	push	r22
     c7a:	7f 93       	push	r23
     c7c:	8f 93       	push	r24
     c7e:	9f 93       	push	r25
     c80:	af 93       	push	r26
     c82:	bf 93       	push	r27
     c84:	ef 93       	push	r30
     c86:	ff 93       	push	r31
     c88:	df 93       	push	r29
     c8a:	cf 93       	push	r28
     c8c:	cd b7       	in	r28, 0x3d	; 61
     c8e:	de b7       	in	r29, 0x3e	; 62
     c90:	41 df       	rcall	.-382    	; 0xb14 <_ZN6extInt12int2_handlerEv>
     c92:	cf 91       	pop	r28
     c94:	df 91       	pop	r29
     c96:	ff 91       	pop	r31
     c98:	ef 91       	pop	r30
     c9a:	bf 91       	pop	r27
     c9c:	af 91       	pop	r26
     c9e:	9f 91       	pop	r25
     ca0:	8f 91       	pop	r24
     ca2:	7f 91       	pop	r23
     ca4:	6f 91       	pop	r22
     ca6:	5f 91       	pop	r21
     ca8:	4f 91       	pop	r20
     caa:	3f 91       	pop	r19
     cac:	2f 91       	pop	r18
     cae:	0f 90       	pop	r0
     cb0:	00 92 5b 00 	sts	0x005B, r0
     cb4:	0f 90       	pop	r0
     cb6:	0f be       	out	0x3f, r0	; 63
     cb8:	0f 90       	pop	r0
     cba:	1f 90       	pop	r1
     cbc:	18 95       	reti

00000cbe <__vector_4>:
     cbe:	1f 92       	push	r1
     cc0:	0f 92       	push	r0
     cc2:	0f b6       	in	r0, 0x3f	; 63
     cc4:	0f 92       	push	r0
     cc6:	00 90 5b 00 	lds	r0, 0x005B
     cca:	0f 92       	push	r0
     ccc:	11 24       	eor	r1, r1
     cce:	2f 93       	push	r18
     cd0:	3f 93       	push	r19
     cd2:	4f 93       	push	r20
     cd4:	5f 93       	push	r21
     cd6:	6f 93       	push	r22
     cd8:	7f 93       	push	r23
     cda:	8f 93       	push	r24
     cdc:	9f 93       	push	r25
     cde:	af 93       	push	r26
     ce0:	bf 93       	push	r27
     ce2:	ef 93       	push	r30
     ce4:	ff 93       	push	r31
     ce6:	df 93       	push	r29
     ce8:	cf 93       	push	r28
     cea:	cd b7       	in	r28, 0x3d	; 61
     cec:	de b7       	in	r29, 0x3e	; 62
     cee:	1e df       	rcall	.-452    	; 0xb2c <_ZN6extInt12int3_handlerEv>
     cf0:	cf 91       	pop	r28
     cf2:	df 91       	pop	r29
     cf4:	ff 91       	pop	r31
     cf6:	ef 91       	pop	r30
     cf8:	bf 91       	pop	r27
     cfa:	af 91       	pop	r26
     cfc:	9f 91       	pop	r25
     cfe:	8f 91       	pop	r24
     d00:	7f 91       	pop	r23
     d02:	6f 91       	pop	r22
     d04:	5f 91       	pop	r21
     d06:	4f 91       	pop	r20
     d08:	3f 91       	pop	r19
     d0a:	2f 91       	pop	r18
     d0c:	0f 90       	pop	r0
     d0e:	00 92 5b 00 	sts	0x005B, r0
     d12:	0f 90       	pop	r0
     d14:	0f be       	out	0x3f, r0	; 63
     d16:	0f 90       	pop	r0
     d18:	1f 90       	pop	r1
     d1a:	18 95       	reti

00000d1c <__vector_5>:
     d1c:	1f 92       	push	r1
     d1e:	0f 92       	push	r0
     d20:	0f b6       	in	r0, 0x3f	; 63
     d22:	0f 92       	push	r0
     d24:	00 90 5b 00 	lds	r0, 0x005B
     d28:	0f 92       	push	r0
     d2a:	11 24       	eor	r1, r1
     d2c:	2f 93       	push	r18
     d2e:	3f 93       	push	r19
     d30:	4f 93       	push	r20
     d32:	5f 93       	push	r21
     d34:	6f 93       	push	r22
     d36:	7f 93       	push	r23
     d38:	8f 93       	push	r24
     d3a:	9f 93       	push	r25
     d3c:	af 93       	push	r26
     d3e:	bf 93       	push	r27
     d40:	ef 93       	push	r30
     d42:	ff 93       	push	r31
     d44:	df 93       	push	r29
     d46:	cf 93       	push	r28
     d48:	cd b7       	in	r28, 0x3d	; 61
     d4a:	de b7       	in	r29, 0x3e	; 62
     d4c:	fb de       	rcall	.-522    	; 0xb44 <_ZN6extInt12int4_handlerEv>
     d4e:	cf 91       	pop	r28
     d50:	df 91       	pop	r29
     d52:	ff 91       	pop	r31
     d54:	ef 91       	pop	r30
     d56:	bf 91       	pop	r27
     d58:	af 91       	pop	r26
     d5a:	9f 91       	pop	r25
     d5c:	8f 91       	pop	r24
     d5e:	7f 91       	pop	r23
     d60:	6f 91       	pop	r22
     d62:	5f 91       	pop	r21
     d64:	4f 91       	pop	r20
     d66:	3f 91       	pop	r19
     d68:	2f 91       	pop	r18
     d6a:	0f 90       	pop	r0
     d6c:	00 92 5b 00 	sts	0x005B, r0
     d70:	0f 90       	pop	r0
     d72:	0f be       	out	0x3f, r0	; 63
     d74:	0f 90       	pop	r0
     d76:	1f 90       	pop	r1
     d78:	18 95       	reti

00000d7a <__vector_6>:
     d7a:	1f 92       	push	r1
     d7c:	0f 92       	push	r0
     d7e:	0f b6       	in	r0, 0x3f	; 63
     d80:	0f 92       	push	r0
     d82:	00 90 5b 00 	lds	r0, 0x005B
     d86:	0f 92       	push	r0
     d88:	11 24       	eor	r1, r1
     d8a:	2f 93       	push	r18
     d8c:	3f 93       	push	r19
     d8e:	4f 93       	push	r20
     d90:	5f 93       	push	r21
     d92:	6f 93       	push	r22
     d94:	7f 93       	push	r23
     d96:	8f 93       	push	r24
     d98:	9f 93       	push	r25
     d9a:	af 93       	push	r26
     d9c:	bf 93       	push	r27
     d9e:	ef 93       	push	r30
     da0:	ff 93       	push	r31
     da2:	df 93       	push	r29
     da4:	cf 93       	push	r28
     da6:	cd b7       	in	r28, 0x3d	; 61
     da8:	de b7       	in	r29, 0x3e	; 62
     daa:	d8 de       	rcall	.-592    	; 0xb5c <_ZN6extInt12int5_handlerEv>
     dac:	cf 91       	pop	r28
     dae:	df 91       	pop	r29
     db0:	ff 91       	pop	r31
     db2:	ef 91       	pop	r30
     db4:	bf 91       	pop	r27
     db6:	af 91       	pop	r26
     db8:	9f 91       	pop	r25
     dba:	8f 91       	pop	r24
     dbc:	7f 91       	pop	r23
     dbe:	6f 91       	pop	r22
     dc0:	5f 91       	pop	r21
     dc2:	4f 91       	pop	r20
     dc4:	3f 91       	pop	r19
     dc6:	2f 91       	pop	r18
     dc8:	0f 90       	pop	r0
     dca:	00 92 5b 00 	sts	0x005B, r0
     dce:	0f 90       	pop	r0
     dd0:	0f be       	out	0x3f, r0	; 63
     dd2:	0f 90       	pop	r0
     dd4:	1f 90       	pop	r1
     dd6:	18 95       	reti

00000dd8 <__vector_7>:
     dd8:	1f 92       	push	r1
     dda:	0f 92       	push	r0
     ddc:	0f b6       	in	r0, 0x3f	; 63
     dde:	0f 92       	push	r0
     de0:	00 90 5b 00 	lds	r0, 0x005B
     de4:	0f 92       	push	r0
     de6:	11 24       	eor	r1, r1
     de8:	2f 93       	push	r18
     dea:	3f 93       	push	r19
     dec:	4f 93       	push	r20
     dee:	5f 93       	push	r21
     df0:	6f 93       	push	r22
     df2:	7f 93       	push	r23
     df4:	8f 93       	push	r24
     df6:	9f 93       	push	r25
     df8:	af 93       	push	r26
     dfa:	bf 93       	push	r27
     dfc:	ef 93       	push	r30
     dfe:	ff 93       	push	r31
     e00:	df 93       	push	r29
     e02:	cf 93       	push	r28
     e04:	cd b7       	in	r28, 0x3d	; 61
     e06:	de b7       	in	r29, 0x3e	; 62
     e08:	b5 de       	rcall	.-662    	; 0xb74 <_ZN6extInt12int6_handlerEv>
     e0a:	cf 91       	pop	r28
     e0c:	df 91       	pop	r29
     e0e:	ff 91       	pop	r31
     e10:	ef 91       	pop	r30
     e12:	bf 91       	pop	r27
     e14:	af 91       	pop	r26
     e16:	9f 91       	pop	r25
     e18:	8f 91       	pop	r24
     e1a:	7f 91       	pop	r23
     e1c:	6f 91       	pop	r22
     e1e:	5f 91       	pop	r21
     e20:	4f 91       	pop	r20
     e22:	3f 91       	pop	r19
     e24:	2f 91       	pop	r18
     e26:	0f 90       	pop	r0
     e28:	00 92 5b 00 	sts	0x005B, r0
     e2c:	0f 90       	pop	r0
     e2e:	0f be       	out	0x3f, r0	; 63
     e30:	0f 90       	pop	r0
     e32:	1f 90       	pop	r1
     e34:	18 95       	reti

00000e36 <__vector_8>:
     e36:	1f 92       	push	r1
     e38:	0f 92       	push	r0
     e3a:	0f b6       	in	r0, 0x3f	; 63
     e3c:	0f 92       	push	r0
     e3e:	00 90 5b 00 	lds	r0, 0x005B
     e42:	0f 92       	push	r0
     e44:	11 24       	eor	r1, r1
     e46:	2f 93       	push	r18
     e48:	3f 93       	push	r19
     e4a:	4f 93       	push	r20
     e4c:	5f 93       	push	r21
     e4e:	6f 93       	push	r22
     e50:	7f 93       	push	r23
     e52:	8f 93       	push	r24
     e54:	9f 93       	push	r25
     e56:	af 93       	push	r26
     e58:	bf 93       	push	r27
     e5a:	ef 93       	push	r30
     e5c:	ff 93       	push	r31
     e5e:	df 93       	push	r29
     e60:	cf 93       	push	r28
     e62:	cd b7       	in	r28, 0x3d	; 61
     e64:	de b7       	in	r29, 0x3e	; 62
     e66:	92 de       	rcall	.-732    	; 0xb8c <_ZN6extInt12int7_handlerEv>
     e68:	cf 91       	pop	r28
     e6a:	df 91       	pop	r29
     e6c:	ff 91       	pop	r31
     e6e:	ef 91       	pop	r30
     e70:	bf 91       	pop	r27
     e72:	af 91       	pop	r26
     e74:	9f 91       	pop	r25
     e76:	8f 91       	pop	r24
     e78:	7f 91       	pop	r23
     e7a:	6f 91       	pop	r22
     e7c:	5f 91       	pop	r21
     e7e:	4f 91       	pop	r20
     e80:	3f 91       	pop	r19
     e82:	2f 91       	pop	r18
     e84:	0f 90       	pop	r0
     e86:	00 92 5b 00 	sts	0x005B, r0
     e8a:	0f 90       	pop	r0
     e8c:	0f be       	out	0x3f, r0	; 63
     e8e:	0f 90       	pop	r0
     e90:	1f 90       	pop	r1
     e92:	18 95       	reti

00000e94 <_Z41__static_initialization_and_destruction_0ii>:
		}
		pcint1_obj.manager_handler();
	}

	return 0;
}
     e94:	ef 92       	push	r14
     e96:	0f 93       	push	r16
     e98:	df 93       	push	r29
     e9a:	cf 93       	push	r28
     e9c:	00 d0       	rcall	.+0      	; 0xe9e <_Z41__static_initialization_and_destruction_0ii+0xa>
     e9e:	0f 92       	push	r0
     ea0:	cd b7       	in	r28, 0x3d	; 61
     ea2:	de b7       	in	r29, 0x3e	; 62
     ea4:	9a 83       	std	Y+2, r25	; 0x02
     ea6:	89 83       	std	Y+1, r24	; 0x01
     ea8:	7c 83       	std	Y+4, r23	; 0x04
     eaa:	6b 83       	std	Y+3, r22	; 0x03
     eac:	89 81       	ldd	r24, Y+1	; 0x01
     eae:	9a 81       	ldd	r25, Y+2	; 0x02
     eb0:	81 30       	cpi	r24, 0x01	; 1
     eb2:	91 05       	cpc	r25, r1
     eb4:	79 f4       	brne	.+30     	; 0xed4 <_Z41__static_initialization_and_destruction_0ii+0x40>
     eb6:	8b 81       	ldd	r24, Y+3	; 0x03
     eb8:	9c 81       	ldd	r25, Y+4	; 0x04
     eba:	2f ef       	ldi	r18, 0xFF	; 255
     ebc:	8f 3f       	cpi	r24, 0xFF	; 255
     ebe:	92 07       	cpc	r25, r18
     ec0:	49 f4       	brne	.+18     	; 0xed4 <_Z41__static_initialization_and_destruction_0ii+0x40>
#include "UART.h"
#include "GPIO.h"
#include "PCInt.h"


UART uart(9600, UART::databit_8, UART::none, UART::two, UART::slow);
     ec2:	80 e0       	ldi	r24, 0x00	; 0
     ec4:	92 e0       	ldi	r25, 0x02	; 2
     ec6:	60 e8       	ldi	r22, 0x80	; 128
     ec8:	75 e2       	ldi	r23, 0x25	; 37
     eca:	46 e0       	ldi	r20, 0x06	; 6
     ecc:	20 e0       	ldi	r18, 0x00	; 0
     ece:	08 e0       	ldi	r16, 0x08	; 8
     ed0:	ee 24       	eor	r14, r14
     ed2:	03 dc       	rcall	.-2042   	; 0x6da <_ZN4UARTC1Ejhhhh>
     ed4:	89 81       	ldd	r24, Y+1	; 0x01
     ed6:	9a 81       	ldd	r25, Y+2	; 0x02
     ed8:	00 97       	sbiw	r24, 0x00	; 0
     eda:	49 f4       	brne	.+18     	; 0xeee <_Z41__static_initialization_and_destruction_0ii+0x5a>
     edc:	8b 81       	ldd	r24, Y+3	; 0x03
     ede:	9c 81       	ldd	r25, Y+4	; 0x04
     ee0:	2f ef       	ldi	r18, 0xFF	; 255
     ee2:	8f 3f       	cpi	r24, 0xFF	; 255
     ee4:	92 07       	cpc	r25, r18
     ee6:	19 f4       	brne	.+6      	; 0xeee <_Z41__static_initialization_and_destruction_0ii+0x5a>
     ee8:	80 e0       	ldi	r24, 0x00	; 0
     eea:	92 e0       	ldi	r25, 0x02	; 2
     eec:	bb db       	rcall	.-2186   	; 0x664 <_ZN4UARTD1Ev>
     eee:	0f 90       	pop	r0
     ef0:	0f 90       	pop	r0
		}
		pcint1_obj.manager_handler();
	}

	return 0;
}
     ef2:	0f 90       	pop	r0
     ef4:	0f 90       	pop	r0
     ef6:	cf 91       	pop	r28
     ef8:	df 91       	pop	r29
     efa:	0f 91       	pop	r16
     efc:	ef 90       	pop	r14
     efe:	08 95       	ret

00000f00 <_GLOBAL__D_uart>:
     f00:	df 93       	push	r29
     f02:	cf 93       	push	r28
     f04:	cd b7       	in	r28, 0x3d	; 61
     f06:	de b7       	in	r29, 0x3e	; 62
     f08:	80 e0       	ldi	r24, 0x00	; 0
     f0a:	90 e0       	ldi	r25, 0x00	; 0
     f0c:	6f ef       	ldi	r22, 0xFF	; 255
     f0e:	7f ef       	ldi	r23, 0xFF	; 255
     f10:	c1 df       	rcall	.-126    	; 0xe94 <_Z41__static_initialization_and_destruction_0ii>
     f12:	cf 91       	pop	r28
     f14:	df 91       	pop	r29
     f16:	08 95       	ret

00000f18 <_GLOBAL__I_uart>:
     f18:	df 93       	push	r29
     f1a:	cf 93       	push	r28
     f1c:	cd b7       	in	r28, 0x3d	; 61
     f1e:	de b7       	in	r29, 0x3e	; 62
     f20:	81 e0       	ldi	r24, 0x01	; 1
     f22:	90 e0       	ldi	r25, 0x00	; 0
     f24:	6f ef       	ldi	r22, 0xFF	; 255
     f26:	7f ef       	ldi	r23, 0xFF	; 255
     f28:	b5 df       	rcall	.-150    	; 0xe94 <_Z41__static_initialization_and_destruction_0ii>
     f2a:	cf 91       	pop	r28
     f2c:	df 91       	pop	r29
     f2e:	08 95       	ret

00000f30 <_Z14PCint1_handlerv>:
void PCint0_handler(void){
	uart.put('1');
	return;
}

void PCint1_handler(void){
     f30:	df 93       	push	r29
     f32:	cf 93       	push	r28
     f34:	cd b7       	in	r28, 0x3d	; 61
     f36:	de b7       	in	r29, 0x3e	; 62
	uart.put('A');
     f38:	80 e0       	ldi	r24, 0x00	; 0
     f3a:	92 e0       	ldi	r25, 0x02	; 2
     f3c:	61 e4       	ldi	r22, 0x41	; 65
     f3e:	dd dc       	rcall	.-1606   	; 0x8fa <_ZN4UART3putEh>
     f40:	cf 91       	pop	r28
	return;
}
     f42:	df 91       	pop	r29
     f44:	08 95       	ret

00000f46 <main>:
toFuncao_t PCInt::_pCallback[24];
uint8_t PCInt::_flag0;
uint8_t PCInt::_flag1;
uint8_t PCInt::_flag2;

int main( void ){
     f46:	df 93       	push	r29
     f48:	cf 93       	push	r28
     f4a:	00 d0       	rcall	.+0      	; 0xf4c <main+0x6>
     f4c:	0f 92       	push	r0
     f4e:	cd b7       	in	r28, 0x3d	; 61
     f50:	de b7       	in	r29, 0x3e	; 62
	extInt int4_obj(extInt::INT_4, extInt::rising, &int4_handler);
	extInt int5_obj(extInt::INT_5, extInt::rising, &int5_handler);
	extInt int6_obj(extInt::INT_6, extInt::rising, &int6_handler);
	extInt int7_obj(extInt::INT_7, extInt::rising, &int7_handler);*/

	PCInt pcint1_obj(PCInt::PCINT_9, &PCint1_handler);
     f52:	ce 01       	movw	r24, r28
     f54:	03 96       	adiw	r24, 0x03	; 3
     f56:	28 e9       	ldi	r18, 0x98	; 152
     f58:	37 e0       	ldi	r19, 0x07	; 7
     f5a:	69 e0       	ldi	r22, 0x09	; 9
     f5c:	a9 01       	movw	r20, r18
     f5e:	04 d9       	rcall	.-3576   	; 0x168 <_ZN5PCIntC1ENS_6int_idEPFvvE>
     f60:	ce 01       	movw	r24, r28
	int4_obj.enable();
	int5_obj.enable();
	int6_obj.enable();
	int7_obj.enable();*/

	pcint1_obj.enable();
     f62:	03 96       	adiw	r24, 0x03	; 3
     f64:	92 d9       	rcall	.-3292   	; 0x28a <_ZN5PCInt6enableEv>
     f66:	78 94       	sei
     f68:	1a 82       	std	Y+2, r1	; 0x02

	sei();
     f6a:	19 82       	std	Y+1, r1	; 0x01
	int a = 0;
     f6c:	80 e0       	ldi	r24, 0x00	; 0
     f6e:	92 e0       	ldi	r25, 0x02	; 2
	while(1){                                   /* forever */
		if (uart.hasdata()){
     f70:	99 dd       	rcall	.-1230   	; 0xaa4 <_ZN4UART7hasdataEv>
     f72:	88 23       	and	r24, r24
     f74:	99 f0       	breq	.+38     	; 0xf9c <main+0x56>
     f76:	80 e0       	ldi	r24, 0x00	; 0
     f78:	92 e0       	ldi	r25, 0x02	; 2
     f7a:	6c dd       	rcall	.-1320   	; 0xa54 <_ZN4UART8dado_getEv>
			a = uart.dado_get();
     f7c:	9a 83       	std	Y+2, r25	; 0x02
     f7e:	89 83       	std	Y+1, r24	; 0x01
     f80:	e8 e6       	ldi	r30, 0x68	; 104
     f82:	f0 e0       	ldi	r31, 0x00	; 0
     f84:	20 81       	ld	r18, Z
     f86:	80 e0       	ldi	r24, 0x00	; 0
			//uart.put(uart.dado_get());                 /* echo the received character */
			//uart.put((EICRA));
			//uart.put((EIMSK));
			uart.put((PCICR));
     f88:	92 e0       	ldi	r25, 0x02	; 2
     f8a:	62 2f       	mov	r22, r18
     f8c:	b6 dc       	rcall	.-1684   	; 0x8fa <_ZN4UART3putEh>
     f8e:	ec e6       	ldi	r30, 0x6C	; 108
     f90:	f0 e0       	ldi	r31, 0x00	; 0
     f92:	20 81       	ld	r18, Z
     f94:	80 e0       	ldi	r24, 0x00	; 0
     f96:	92 e0       	ldi	r25, 0x02	; 2
			uart.put((PCMSK1));
     f98:	62 2f       	mov	r22, r18
     f9a:	af dc       	rcall	.-1698   	; 0x8fa <_ZN4UART3putEh>
     f9c:	f7 d9       	rcall	.-3090   	; 0x38c <_ZN5PCInt15manager_handlerEv>
     f9e:	e6 cf       	rjmp	.-52     	; 0xf6c <main+0x26>

00000fa0 <__divmodhi4>:
     fa0:	97 fb       	bst	r25, 7
     fa2:	09 2e       	mov	r0, r25
     fa4:	07 26       	eor	r0, r23
     fa6:	0a d0       	rcall	.+20     	; 0xfbc <__divmodhi4_neg1>
			//uart.put((PCMSK1));
			//uart.put((PCMSK2));
		}
		pcint1_obj.manager_handler();
     fa8:	77 fd       	sbrc	r23, 7
     faa:	04 d0       	rcall	.+8      	; 0xfb4 <__divmodhi4_neg2>
     fac:	2e d0       	rcall	.+92     	; 0x100a <__udivmodhi4>
     fae:	06 d0       	rcall	.+12     	; 0xfbc <__divmodhi4_neg1>
     fb0:	00 20       	and	r0, r0
     fb2:	1a f4       	brpl	.+6      	; 0xfba <__divmodhi4_exit>

00000fb4 <__divmodhi4_neg2>:
     fb4:	70 95       	com	r23
     fb6:	61 95       	neg	r22
     fb8:	7f 4f       	sbci	r23, 0xFF	; 255

00000fba <__divmodhi4_exit>:
     fba:	08 95       	ret

00000fbc <__divmodhi4_neg1>:
     fbc:	f6 f7       	brtc	.-4      	; 0xfba <__divmodhi4_exit>
     fbe:	90 95       	com	r25
     fc0:	81 95       	neg	r24
     fc2:	9f 4f       	sbci	r25, 0xFF	; 255
     fc4:	08 95       	ret

00000fc6 <__udivmodsi4>:
     fc6:	a1 e2       	ldi	r26, 0x21	; 33
     fc8:	1a 2e       	mov	r1, r26
     fca:	aa 1b       	sub	r26, r26
     fcc:	bb 1b       	sub	r27, r27
     fce:	fd 01       	movw	r30, r26
     fd0:	0d c0       	rjmp	.+26     	; 0xfec <__udivmodsi4_ep>

00000fd2 <__udivmodsi4_loop>:
     fd2:	aa 1f       	adc	r26, r26
     fd4:	bb 1f       	adc	r27, r27
     fd6:	ee 1f       	adc	r30, r30
     fd8:	ff 1f       	adc	r31, r31
     fda:	a2 17       	cp	r26, r18
     fdc:	b3 07       	cpc	r27, r19
     fde:	e4 07       	cpc	r30, r20
     fe0:	f5 07       	cpc	r31, r21
     fe2:	20 f0       	brcs	.+8      	; 0xfec <__udivmodsi4_ep>
     fe4:	a2 1b       	sub	r26, r18
     fe6:	b3 0b       	sbc	r27, r19
     fe8:	e4 0b       	sbc	r30, r20
     fea:	f5 0b       	sbc	r31, r21

00000fec <__udivmodsi4_ep>:
     fec:	66 1f       	adc	r22, r22
     fee:	77 1f       	adc	r23, r23
     ff0:	88 1f       	adc	r24, r24
     ff2:	99 1f       	adc	r25, r25
     ff4:	1a 94       	dec	r1
     ff6:	69 f7       	brne	.-38     	; 0xfd2 <__udivmodsi4_loop>
     ff8:	60 95       	com	r22
     ffa:	70 95       	com	r23
     ffc:	80 95       	com	r24
     ffe:	90 95       	com	r25
    1000:	9b 01       	movw	r18, r22
    1002:	ac 01       	movw	r20, r24
    1004:	bd 01       	movw	r22, r26
    1006:	cf 01       	movw	r24, r30
    1008:	08 95       	ret

0000100a <__udivmodhi4>:
    100a:	aa 1b       	sub	r26, r26
    100c:	bb 1b       	sub	r27, r27
    100e:	51 e1       	ldi	r21, 0x11	; 17
    1010:	07 c0       	rjmp	.+14     	; 0x1020 <__udivmodhi4_ep>

00001012 <__udivmodhi4_loop>:
    1012:	aa 1f       	adc	r26, r26
    1014:	bb 1f       	adc	r27, r27
    1016:	a6 17       	cp	r26, r22
    1018:	b7 07       	cpc	r27, r23
    101a:	10 f0       	brcs	.+4      	; 0x1020 <__udivmodhi4_ep>
    101c:	a6 1b       	sub	r26, r22
    101e:	b7 0b       	sbc	r27, r23

00001020 <__udivmodhi4_ep>:
    1020:	88 1f       	adc	r24, r24
    1022:	99 1f       	adc	r25, r25
    1024:	5a 95       	dec	r21
    1026:	a9 f7       	brne	.-22     	; 0x1012 <__udivmodhi4_loop>
    1028:	80 95       	com	r24
    102a:	90 95       	com	r25
    102c:	bc 01       	movw	r22, r24
    102e:	cd 01       	movw	r24, r26
    1030:	08 95       	ret

00001032 <__tablejump2__>:
    1032:	ee 0f       	add	r30, r30
    1034:	ff 1f       	adc	r31, r31

00001036 <__tablejump__>:
    1036:	05 90       	lpm	r0, Z+
    1038:	f4 91       	lpm	r31, Z+
    103a:	e0 2d       	mov	r30, r0
    103c:	19 94       	eijmp

0000103e <__do_global_dtors>:
    103e:	10 e0       	ldi	r17, 0x00	; 0
    1040:	c6 ee       	ldi	r28, 0xE6	; 230
    1042:	d0 e0       	ldi	r29, 0x00	; 0
    1044:	03 c0       	rjmp	.+6      	; 0x104c <.do_global_dtors_start>

00001046 <.do_global_dtors_loop>:
    1046:	fe 01       	movw	r30, r28
    1048:	f6 df       	rcall	.-20     	; 0x1036 <__tablejump__>
    104a:	22 96       	adiw	r28, 0x02	; 2

0000104c <.do_global_dtors_start>:
    104c:	c8 3e       	cpi	r28, 0xE8	; 232
    104e:	d1 07       	cpc	r29, r17
    1050:	d1 f7       	brne	.-12     	; 0x1046 <.do_global_dtors_loop>
    1052:	f8 94       	cli

00001054 <__stop_program>:
    1054:	ff cf       	rjmp	.-2      	; 0x1054 <__stop_program>
