
ste-UART-v1.elf:     file format elf32-avr

Sections:
Idx Name          Size      VMA       LMA       File off  Algn
  0 .data         0000000c  00800200  0000045c  000004f0  2**0
                  CONTENTS, ALLOC, LOAD, DATA
  1 .text         0000045c  00000000  00000000  00000094  2**1
                  CONTENTS, ALLOC, LOAD, READONLY, CODE
  2 .bss          00000088  0080020c  0080020c  000004fc  2**0
                  ALLOC

Disassembly of section .text:

00000000 <__vectors>:
   0:	73 c0       	rjmp	.+230    	; 0xe8 <__dtors_end>
   2:	00 00       	nop
   4:	9a c0       	rjmp	.+308    	; 0x13a <__bad_interrupt>
   6:	00 00       	nop
   8:	98 c0       	rjmp	.+304    	; 0x13a <__bad_interrupt>
   a:	00 00       	nop
   c:	96 c0       	rjmp	.+300    	; 0x13a <__bad_interrupt>
   e:	00 00       	nop
  10:	94 c0       	rjmp	.+296    	; 0x13a <__bad_interrupt>
  12:	00 00       	nop
  14:	92 c0       	rjmp	.+292    	; 0x13a <__bad_interrupt>
  16:	00 00       	nop
  18:	90 c0       	rjmp	.+288    	; 0x13a <__bad_interrupt>
  1a:	00 00       	nop
  1c:	8e c0       	rjmp	.+284    	; 0x13a <__bad_interrupt>
  1e:	00 00       	nop
  20:	8c c0       	rjmp	.+280    	; 0x13a <__bad_interrupt>
  22:	00 00       	nop
  24:	8a c0       	rjmp	.+276    	; 0x13a <__bad_interrupt>
  26:	00 00       	nop
  28:	88 c0       	rjmp	.+272    	; 0x13a <__bad_interrupt>
  2a:	00 00       	nop
  2c:	86 c0       	rjmp	.+268    	; 0x13a <__bad_interrupt>
  2e:	00 00       	nop
  30:	84 c0       	rjmp	.+264    	; 0x13a <__bad_interrupt>
  32:	00 00       	nop
  34:	82 c0       	rjmp	.+260    	; 0x13a <__bad_interrupt>
  36:	00 00       	nop
  38:	80 c0       	rjmp	.+256    	; 0x13a <__bad_interrupt>
  3a:	00 00       	nop
  3c:	7e c0       	rjmp	.+252    	; 0x13a <__bad_interrupt>
  3e:	00 00       	nop
  40:	7c c0       	rjmp	.+248    	; 0x13a <__bad_interrupt>
  42:	00 00       	nop
  44:	7a c0       	rjmp	.+244    	; 0x13a <__bad_interrupt>
  46:	00 00       	nop
  48:	78 c0       	rjmp	.+240    	; 0x13a <__bad_interrupt>
  4a:	00 00       	nop
  4c:	76 c0       	rjmp	.+236    	; 0x13a <__bad_interrupt>
  4e:	00 00       	nop
  50:	74 c0       	rjmp	.+232    	; 0x13a <__bad_interrupt>
  52:	00 00       	nop
  54:	72 c0       	rjmp	.+228    	; 0x13a <__bad_interrupt>
  56:	00 00       	nop
  58:	70 c0       	rjmp	.+224    	; 0x13a <__bad_interrupt>
  5a:	00 00       	nop
  5c:	6e c0       	rjmp	.+220    	; 0x13a <__bad_interrupt>
  5e:	00 00       	nop
  60:	6c c0       	rjmp	.+216    	; 0x13a <__bad_interrupt>
  62:	00 00       	nop
  64:	e3 c0       	rjmp	.+454    	; 0x22c <__vector_25>
  66:	00 00       	nop
  68:	4f c1       	rjmp	.+670    	; 0x308 <__vector_26>
  6a:	00 00       	nop
  6c:	66 c0       	rjmp	.+204    	; 0x13a <__bad_interrupt>
  6e:	00 00       	nop
  70:	64 c0       	rjmp	.+200    	; 0x13a <__bad_interrupt>
  72:	00 00       	nop
  74:	62 c0       	rjmp	.+196    	; 0x13a <__bad_interrupt>
  76:	00 00       	nop
  78:	60 c0       	rjmp	.+192    	; 0x13a <__bad_interrupt>
  7a:	00 00       	nop
  7c:	5e c0       	rjmp	.+188    	; 0x13a <__bad_interrupt>
  7e:	00 00       	nop
  80:	5c c0       	rjmp	.+184    	; 0x13a <__bad_interrupt>
  82:	00 00       	nop
  84:	5a c0       	rjmp	.+180    	; 0x13a <__bad_interrupt>
  86:	00 00       	nop
  88:	58 c0       	rjmp	.+176    	; 0x13a <__bad_interrupt>
  8a:	00 00       	nop
  8c:	56 c0       	rjmp	.+172    	; 0x13a <__bad_interrupt>
  8e:	00 00       	nop
  90:	54 c0       	rjmp	.+168    	; 0x13a <__bad_interrupt>
  92:	00 00       	nop
  94:	52 c0       	rjmp	.+164    	; 0x13a <__bad_interrupt>
  96:	00 00       	nop
  98:	50 c0       	rjmp	.+160    	; 0x13a <__bad_interrupt>
  9a:	00 00       	nop
  9c:	4e c0       	rjmp	.+156    	; 0x13a <__bad_interrupt>
  9e:	00 00       	nop
  a0:	4c c0       	rjmp	.+152    	; 0x13a <__bad_interrupt>
  a2:	00 00       	nop
  a4:	4a c0       	rjmp	.+148    	; 0x13a <__bad_interrupt>
  a6:	00 00       	nop
  a8:	48 c0       	rjmp	.+144    	; 0x13a <__bad_interrupt>
  aa:	00 00       	nop
  ac:	46 c0       	rjmp	.+140    	; 0x13a <__bad_interrupt>
  ae:	00 00       	nop
  b0:	44 c0       	rjmp	.+136    	; 0x13a <__bad_interrupt>
  b2:	00 00       	nop
  b4:	42 c0       	rjmp	.+132    	; 0x13a <__bad_interrupt>
  b6:	00 00       	nop
  b8:	40 c0       	rjmp	.+128    	; 0x13a <__bad_interrupt>
  ba:	00 00       	nop
  bc:	3e c0       	rjmp	.+124    	; 0x13a <__bad_interrupt>
  be:	00 00       	nop
  c0:	3c c0       	rjmp	.+120    	; 0x13a <__bad_interrupt>
  c2:	00 00       	nop
  c4:	3a c0       	rjmp	.+116    	; 0x13a <__bad_interrupt>
  c6:	00 00       	nop
  c8:	38 c0       	rjmp	.+112    	; 0x13a <__bad_interrupt>
  ca:	00 00       	nop
  cc:	36 c0       	rjmp	.+108    	; 0x13a <__bad_interrupt>
  ce:	00 00       	nop
  d0:	34 c0       	rjmp	.+104    	; 0x13a <__bad_interrupt>
  d2:	00 00       	nop
  d4:	32 c0       	rjmp	.+100    	; 0x13a <__bad_interrupt>
  d6:	00 00       	nop
  d8:	30 c0       	rjmp	.+96     	; 0x13a <__bad_interrupt>
  da:	00 00       	nop
  dc:	2e c0       	rjmp	.+92     	; 0x13a <__bad_interrupt>
  de:	00 00       	nop
  e0:	2c c0       	rjmp	.+88     	; 0x13a <__bad_interrupt>
	...

000000e4 <__ctors_start>:
  e4:	d6 01       	movw	r26, r12

000000e6 <__ctors_end>:
  e6:	d1 01       	movw	r26, r2

000000e8 <__dtors_end>:
  e8:	11 24       	eor	r1, r1
  ea:	1f be       	out	0x3f, r1	; 63
  ec:	cf ef       	ldi	r28, 0xFF	; 255
  ee:	d1 e2       	ldi	r29, 0x21	; 33
  f0:	de bf       	out	0x3e, r29	; 62
  f2:	cd bf       	out	0x3d, r28	; 61
  f4:	00 e0       	ldi	r16, 0x00	; 0
  f6:	0c bf       	out	0x3c, r16	; 60

000000f8 <__do_copy_data>:
  f8:	12 e0       	ldi	r17, 0x02	; 2
  fa:	a0 e0       	ldi	r26, 0x00	; 0
  fc:	b2 e0       	ldi	r27, 0x02	; 2
  fe:	ec e5       	ldi	r30, 0x5C	; 92
 100:	f4 e0       	ldi	r31, 0x04	; 4
 102:	00 e0       	ldi	r16, 0x00	; 0
 104:	0b bf       	out	0x3b, r16	; 59
 106:	02 c0       	rjmp	.+4      	; 0x10c <__do_copy_data+0x14>
 108:	07 90       	elpm	r0, Z+
 10a:	0d 92       	st	X+, r0
 10c:	ac 30       	cpi	r26, 0x0C	; 12
 10e:	b1 07       	cpc	r27, r17
 110:	d9 f7       	brne	.-10     	; 0x108 <__do_copy_data+0x10>

00000112 <__do_clear_bss>:
 112:	12 e0       	ldi	r17, 0x02	; 2
 114:	ac e0       	ldi	r26, 0x0C	; 12
 116:	b2 e0       	ldi	r27, 0x02	; 2
 118:	01 c0       	rjmp	.+2      	; 0x11c <.do_clear_bss_start>

0000011a <.do_clear_bss_loop>:
 11a:	1d 92       	st	X+, r1

0000011c <.do_clear_bss_start>:
 11c:	a4 39       	cpi	r26, 0x94	; 148
 11e:	b1 07       	cpc	r27, r17
 120:	e1 f7       	brne	.-8      	; 0x11a <.do_clear_bss_loop>

00000122 <__do_global_ctors>:
 122:	10 e0       	ldi	r17, 0x00	; 0
 124:	c6 ee       	ldi	r28, 0xE6	; 230
 126:	d0 e0       	ldi	r29, 0x00	; 0
 128:	03 c0       	rjmp	.+6      	; 0x130 <.do_global_ctors_start>

0000012a <.do_global_ctors_loop>:
 12a:	22 97       	sbiw	r28, 0x02	; 2
 12c:	fe 01       	movw	r30, r28
 12e:	86 d1       	rcall	.+780    	; 0x43c <__tablejump__>

00000130 <.do_global_ctors_start>:
 130:	c4 3e       	cpi	r28, 0xE4	; 228
 132:	d1 07       	cpc	r29, r17
 134:	d1 f7       	brne	.-12     	; 0x12a <.do_global_ctors_loop>
 136:	3f d1       	rcall	.+638    	; 0x3b6 <main>
 138:	85 c1       	rjmp	.+778    	; 0x444 <__do_global_dtors>

0000013a <__bad_interrupt>:
 13a:	62 cf       	rjmp	.-316    	; 0x0 <__vectors>

0000013c <_ZN4UARTC1Ejhhhh>:
 13c:	ef 92       	push	r14
 13e:	ff 92       	push	r15
 140:	0f 93       	push	r16
 142:	1f 93       	push	r17
 144:	fc 01       	movw	r30, r24
 146:	f4 2e       	mov	r15, r20
 148:	12 2f       	mov	r17, r18
 14a:	90 93 93 02 	sts	0x0293, r25
 14e:	80 93 92 02 	sts	0x0292, r24
 152:	ee 5b       	subi	r30, 0xBE	; 190
 154:	ff 4f       	sbci	r31, 0xFF	; 255
 156:	10 82       	st	Z, r1
 158:	12 92       	st	-Z, r1
 15a:	12 92       	st	-Z, r1
 15c:	eb 5b       	subi	r30, 0xBB	; 187
 15e:	ff 4f       	sbci	r31, 0xFF	; 255
 160:	10 82       	st	Z, r1
 162:	12 92       	st	-Z, r1
 164:	12 92       	st	-Z, r1
 166:	9b 01       	movw	r18, r22
 168:	40 e0       	ldi	r20, 0x00	; 0
 16a:	50 e0       	ldi	r21, 0x00	; 0
 16c:	ee 20       	and	r14, r14
 16e:	29 f4       	brne	.+10     	; 0x17a <_ZN4UARTC1Ejhhhh+0x3e>
 170:	60 e4       	ldi	r22, 0x40	; 64
 172:	72 e4       	ldi	r23, 0x42	; 66
 174:	8f e0       	ldi	r24, 0x0F	; 15
 176:	90 e0       	ldi	r25, 0x00	; 0
 178:	04 c0       	rjmp	.+8      	; 0x182 <_ZN4UARTC1Ejhhhh+0x46>
 17a:	60 e8       	ldi	r22, 0x80	; 128
 17c:	74 e8       	ldi	r23, 0x84	; 132
 17e:	8e e1       	ldi	r24, 0x1E	; 30
 180:	90 e0       	ldi	r25, 0x00	; 0
 182:	38 d1       	rcall	.+624    	; 0x3f4 <__udivmodsi4>
 184:	21 50       	subi	r18, 0x01	; 1
 186:	30 40       	sbci	r19, 0x00	; 0
 188:	30 93 c5 00 	sts	0x00C5, r19
 18c:	20 93 c4 00 	sts	0x00C4, r18
 190:	88 e1       	ldi	r24, 0x18	; 24
 192:	80 93 c1 00 	sts	0x00C1, r24
 196:	80 91 c2 00 	lds	r24, 0x00C2
 19a:	1f 29       	or	r17, r15
 19c:	10 2b       	or	r17, r16
 19e:	81 2b       	or	r24, r17
 1a0:	80 93 c2 00 	sts	0x00C2, r24
 1a4:	80 91 c1 00 	lds	r24, 0x00C1
 1a8:	80 68       	ori	r24, 0x80	; 128
 1aa:	80 93 c1 00 	sts	0x00C1, r24
 1ae:	80 91 c0 00 	lds	r24, 0x00C0
 1b2:	8e 29       	or	r24, r14
 1b4:	80 93 c0 00 	sts	0x00C0, r24
 1b8:	1f 91       	pop	r17
 1ba:	0f 91       	pop	r16
 1bc:	ff 90       	pop	r15
 1be:	ef 90       	pop	r14
 1c0:	08 95       	ret

000001c2 <_ZN4UARTD1Ev>:
 1c2:	10 92 93 02 	sts	0x0293, r1
 1c6:	10 92 92 02 	sts	0x0292, r1
 1ca:	08 95       	ret

000001cc <_ZN4UART7hasdataEv>:
 1cc:	e0 91 92 02 	lds	r30, 0x0292
 1d0:	f0 91 93 02 	lds	r31, 0x0293
 1d4:	eb 57       	subi	r30, 0x7B	; 123
 1d6:	ff 4f       	sbci	r31, 0xFF	; 255
 1d8:	80 81       	ld	r24, Z
 1da:	81 11       	cpse	r24, r1
 1dc:	81 e0       	ldi	r24, 0x01	; 1
 1de:	08 95       	ret

000001e0 <_ZN4FIFOIhLh64EE4pushEh>:
 1e0:	cf 93       	push	r28
 1e2:	df 93       	push	r29
 1e4:	dc 01       	movw	r26, r24
 1e6:	ec 01       	movw	r28, r24
 1e8:	ce 5b       	subi	r28, 0xBE	; 190
 1ea:	df 4f       	sbci	r29, 0xFF	; 255
 1ec:	28 81       	ld	r18, Y
 1ee:	20 34       	cpi	r18, 0x40	; 64
 1f0:	10 f0       	brcs	.+4      	; 0x1f6 <_ZN4FIFOIhLh64EE4pushEh+0x16>
 1f2:	81 e0       	ldi	r24, 0x01	; 1
 1f4:	0f c0       	rjmp	.+30     	; 0x214 <_ZN4FIFOIhLh64EE4pushEh+0x34>
 1f6:	fc 01       	movw	r30, r24
 1f8:	e0 5c       	subi	r30, 0xC0	; 192
 1fa:	ff 4f       	sbci	r31, 0xFF	; 255
 1fc:	80 81       	ld	r24, Z
 1fe:	90 e0       	ldi	r25, 0x00	; 0
 200:	a8 0f       	add	r26, r24
 202:	b9 1f       	adc	r27, r25
 204:	6c 93       	st	X, r22
 206:	01 96       	adiw	r24, 0x01	; 1
 208:	8f 73       	andi	r24, 0x3F	; 63
 20a:	90 70       	andi	r25, 0x00	; 0
 20c:	80 83       	st	Z, r24
 20e:	2f 5f       	subi	r18, 0xFF	; 255
 210:	28 83       	st	Y, r18
 212:	80 e0       	ldi	r24, 0x00	; 0
 214:	df 91       	pop	r29
 216:	cf 91       	pop	r28
 218:	08 95       	ret

0000021a <_ZN4UART6rx_ISREv>:
 21a:	60 91 c6 00 	lds	r22, 0x00C6
 21e:	80 91 92 02 	lds	r24, 0x0292
 222:	90 91 93 02 	lds	r25, 0x0293
 226:	8d 5b       	subi	r24, 0xBD	; 189
 228:	9f 4f       	sbci	r25, 0xFF	; 255
 22a:	da cf       	rjmp	.-76     	; 0x1e0 <_ZN4FIFOIhLh64EE4pushEh>

0000022c <__vector_25>:
 22c:	1f 92       	push	r1
 22e:	0f 92       	push	r0
 230:	0f b6       	in	r0, 0x3f	; 63
 232:	0f 92       	push	r0
 234:	0b b6       	in	r0, 0x3b	; 59
 236:	0f 92       	push	r0
 238:	11 24       	eor	r1, r1
 23a:	2f 93       	push	r18
 23c:	3f 93       	push	r19
 23e:	4f 93       	push	r20
 240:	5f 93       	push	r21
 242:	6f 93       	push	r22
 244:	7f 93       	push	r23
 246:	8f 93       	push	r24
 248:	9f 93       	push	r25
 24a:	af 93       	push	r26
 24c:	bf 93       	push	r27
 24e:	ef 93       	push	r30
 250:	ff 93       	push	r31
 252:	e3 df       	rcall	.-58     	; 0x21a <_ZN4UART6rx_ISREv>
 254:	ff 91       	pop	r31
 256:	ef 91       	pop	r30
 258:	bf 91       	pop	r27
 25a:	af 91       	pop	r26
 25c:	9f 91       	pop	r25
 25e:	8f 91       	pop	r24
 260:	7f 91       	pop	r23
 262:	6f 91       	pop	r22
 264:	5f 91       	pop	r21
 266:	4f 91       	pop	r20
 268:	3f 91       	pop	r19
 26a:	2f 91       	pop	r18
 26c:	0f 90       	pop	r0
 26e:	0b be       	out	0x3b, r0	; 59
 270:	0f 90       	pop	r0
 272:	0f be       	out	0x3f, r0	; 63
 274:	0f 90       	pop	r0
 276:	1f 90       	pop	r1
 278:	18 95       	reti

0000027a <_ZN4UART3putEh>:
 27a:	80 91 92 02 	lds	r24, 0x0292
 27e:	90 91 93 02 	lds	r25, 0x0293
 282:	ae df       	rcall	.-164    	; 0x1e0 <_ZN4FIFOIhLh64EE4pushEh>
 284:	e1 ec       	ldi	r30, 0xC1	; 193
 286:	f0 e0       	ldi	r31, 0x00	; 0
 288:	80 81       	ld	r24, Z
 28a:	80 62       	ori	r24, 0x20	; 32
 28c:	80 83       	st	Z, r24
 28e:	08 95       	ret

00000290 <_ZN4UART4putsEPKc>:
 290:	0f 93       	push	r16
 292:	1f 93       	push	r17
 294:	cf 93       	push	r28
 296:	df 93       	push	r29
 298:	8c 01       	movw	r16, r24
 29a:	eb 01       	movw	r28, r22
 29c:	03 c0       	rjmp	.+6      	; 0x2a4 <_ZN4UART4putsEPKc+0x14>
 29e:	c8 01       	movw	r24, r16
 2a0:	ec df       	rcall	.-40     	; 0x27a <_ZN4UART3putEh>
 2a2:	21 96       	adiw	r28, 0x01	; 1
 2a4:	68 81       	ld	r22, Y
 2a6:	66 23       	and	r22, r22
 2a8:	d1 f7       	brne	.-12     	; 0x29e <_ZN4UART4putsEPKc+0xe>
 2aa:	df 91       	pop	r29
 2ac:	cf 91       	pop	r28
 2ae:	1f 91       	pop	r17
 2b0:	0f 91       	pop	r16
 2b2:	08 95       	ret

000002b4 <_ZN4FIFOIhLh64EE3popEv>:
 2b4:	cf 93       	push	r28
 2b6:	df 93       	push	r29
 2b8:	dc 01       	movw	r26, r24
 2ba:	ec 01       	movw	r28, r24
 2bc:	ce 5b       	subi	r28, 0xBE	; 190
 2be:	df 4f       	sbci	r29, 0xFF	; 255
 2c0:	28 81       	ld	r18, Y
 2c2:	22 23       	and	r18, r18
 2c4:	11 f4       	brne	.+4      	; 0x2ca <_ZN4FIFOIhLh64EE3popEv+0x16>
 2c6:	31 e0       	ldi	r19, 0x01	; 1
 2c8:	0e c0       	rjmp	.+28     	; 0x2e6 <_ZN4FIFOIhLh64EE3popEv+0x32>
 2ca:	fc 01       	movw	r30, r24
 2cc:	ef 5b       	subi	r30, 0xBF	; 191
 2ce:	ff 4f       	sbci	r31, 0xFF	; 255
 2d0:	80 81       	ld	r24, Z
 2d2:	90 e0       	ldi	r25, 0x00	; 0
 2d4:	a8 0f       	add	r26, r24
 2d6:	b9 1f       	adc	r27, r25
 2d8:	3c 91       	ld	r19, X
 2da:	01 96       	adiw	r24, 0x01	; 1
 2dc:	8f 73       	andi	r24, 0x3F	; 63
 2de:	90 70       	andi	r25, 0x00	; 0
 2e0:	80 83       	st	Z, r24
 2e2:	21 50       	subi	r18, 0x01	; 1
 2e4:	28 83       	st	Y, r18
 2e6:	83 2f       	mov	r24, r19
 2e8:	df 91       	pop	r29
 2ea:	cf 91       	pop	r28
 2ec:	08 95       	ret

000002ee <_ZN4UART6tx_ISREv>:
 2ee:	80 91 92 02 	lds	r24, 0x0292
 2f2:	90 91 93 02 	lds	r25, 0x0293
 2f6:	de df       	rcall	.-68     	; 0x2b4 <_ZN4FIFOIhLh64EE3popEv>
 2f8:	80 93 c6 00 	sts	0x00C6, r24
 2fc:	e1 ec       	ldi	r30, 0xC1	; 193
 2fe:	f0 e0       	ldi	r31, 0x00	; 0
 300:	80 81       	ld	r24, Z
 302:	8f 7d       	andi	r24, 0xDF	; 223
 304:	80 83       	st	Z, r24
 306:	08 95       	ret

00000308 <__vector_26>:
 308:	1f 92       	push	r1
 30a:	0f 92       	push	r0
 30c:	0f b6       	in	r0, 0x3f	; 63
 30e:	0f 92       	push	r0
 310:	0b b6       	in	r0, 0x3b	; 59
 312:	0f 92       	push	r0
 314:	11 24       	eor	r1, r1
 316:	2f 93       	push	r18
 318:	3f 93       	push	r19
 31a:	4f 93       	push	r20
 31c:	5f 93       	push	r21
 31e:	6f 93       	push	r22
 320:	7f 93       	push	r23
 322:	8f 93       	push	r24
 324:	9f 93       	push	r25
 326:	af 93       	push	r26
 328:	bf 93       	push	r27
 32a:	ef 93       	push	r30
 32c:	ff 93       	push	r31
 32e:	df df       	rcall	.-66     	; 0x2ee <_ZN4UART6tx_ISREv>
 330:	ff 91       	pop	r31
 332:	ef 91       	pop	r30
 334:	bf 91       	pop	r27
 336:	af 91       	pop	r26
 338:	9f 91       	pop	r25
 33a:	8f 91       	pop	r24
 33c:	7f 91       	pop	r23
 33e:	6f 91       	pop	r22
 340:	5f 91       	pop	r21
 342:	4f 91       	pop	r20
 344:	3f 91       	pop	r19
 346:	2f 91       	pop	r18
 348:	0f 90       	pop	r0
 34a:	0b be       	out	0x3b, r0	; 59
 34c:	0f 90       	pop	r0
 34e:	0f be       	out	0x3f, r0	; 63
 350:	0f 90       	pop	r0
 352:	1f 90       	pop	r1
 354:	18 95       	reti

00000356 <_ZN4UART8dado_getEv>:
 356:	80 91 92 02 	lds	r24, 0x0292
 35a:	90 91 93 02 	lds	r25, 0x0293
 35e:	8d 5b       	subi	r24, 0xBD	; 189
 360:	9f 4f       	sbci	r25, 0xFF	; 255
 362:	a8 df       	rcall	.-176    	; 0x2b4 <_ZN4FIFOIhLh64EE3popEv>
 364:	90 e0       	ldi	r25, 0x00	; 0
 366:	08 95       	ret

00000368 <_Z41__static_initialization_and_destruction_0ii>:
 368:	ef 92       	push	r14
 36a:	0f 93       	push	r16
 36c:	81 30       	cpi	r24, 0x01	; 1
 36e:	91 05       	cpc	r25, r1
 370:	69 f4       	brne	.+26     	; 0x38c <_Z41__static_initialization_and_destruction_0ii+0x24>
 372:	6f 5f       	subi	r22, 0xFF	; 255
 374:	7f 4f       	sbci	r23, 0xFF	; 255
 376:	91 f4       	brne	.+36     	; 0x39c <_Z41__static_initialization_and_destruction_0ii+0x34>
 378:	8c e0       	ldi	r24, 0x0C	; 12
 37a:	92 e0       	ldi	r25, 0x02	; 2
 37c:	60 e8       	ldi	r22, 0x80	; 128
 37e:	75 e2       	ldi	r23, 0x25	; 37
 380:	46 e0       	ldi	r20, 0x06	; 6
 382:	20 e0       	ldi	r18, 0x00	; 0
 384:	08 e0       	ldi	r16, 0x08	; 8
 386:	ee 24       	eor	r14, r14
 388:	d9 de       	rcall	.-590    	; 0x13c <_ZN4UARTC1Ejhhhh>
 38a:	08 c0       	rjmp	.+16     	; 0x39c <_Z41__static_initialization_and_destruction_0ii+0x34>
 38c:	89 2b       	or	r24, r25
 38e:	31 f4       	brne	.+12     	; 0x39c <_Z41__static_initialization_and_destruction_0ii+0x34>
 390:	6f 5f       	subi	r22, 0xFF	; 255
 392:	7f 4f       	sbci	r23, 0xFF	; 255
 394:	19 f4       	brne	.+6      	; 0x39c <_Z41__static_initialization_and_destruction_0ii+0x34>
 396:	8c e0       	ldi	r24, 0x0C	; 12
 398:	92 e0       	ldi	r25, 0x02	; 2
 39a:	13 df       	rcall	.-474    	; 0x1c2 <_ZN4UARTD1Ev>
 39c:	0f 91       	pop	r16
 39e:	ef 90       	pop	r14
 3a0:	08 95       	ret

000003a2 <_GLOBAL__D_serial1>:
 3a2:	80 e0       	ldi	r24, 0x00	; 0
 3a4:	90 e0       	ldi	r25, 0x00	; 0
 3a6:	6f ef       	ldi	r22, 0xFF	; 255
 3a8:	7f ef       	ldi	r23, 0xFF	; 255
 3aa:	de cf       	rjmp	.-68     	; 0x368 <_Z41__static_initialization_and_destruction_0ii>

000003ac <_GLOBAL__I_serial1>:
 3ac:	81 e0       	ldi	r24, 0x01	; 1
 3ae:	90 e0       	ldi	r25, 0x00	; 0
 3b0:	6f ef       	ldi	r22, 0xFF	; 255
 3b2:	7f ef       	ldi	r23, 0xFF	; 255
 3b4:	d9 cf       	rjmp	.-78     	; 0x368 <_Z41__static_initialization_and_destruction_0ii>

000003b6 <main>:
 3b6:	cf 93       	push	r28
 3b8:	df 93       	push	r29
 3ba:	78 94       	sei
 3bc:	c0 e9       	ldi	r28, 0x90	; 144
 3be:	d1 e0       	ldi	r29, 0x01	; 1
 3c0:	07 c0       	rjmp	.+14     	; 0x3d0 <main+0x1a>
 3c2:	8c e0       	ldi	r24, 0x0C	; 12
 3c4:	92 e0       	ldi	r25, 0x02	; 2
 3c6:	c7 df       	rcall	.-114    	; 0x356 <_ZN4UART8dado_getEv>
 3c8:	68 2f       	mov	r22, r24
 3ca:	8c e0       	ldi	r24, 0x0C	; 12
 3cc:	92 e0       	ldi	r25, 0x02	; 2
 3ce:	55 df       	rcall	.-342    	; 0x27a <_ZN4UART3putEh>
 3d0:	8c e0       	ldi	r24, 0x0C	; 12
 3d2:	92 e0       	ldi	r25, 0x02	; 2
 3d4:	fb de       	rcall	.-522    	; 0x1cc <_ZN4UART7hasdataEv>
 3d6:	88 23       	and	r24, r24
 3d8:	a1 f7       	brne	.-24     	; 0x3c2 <main+0xc>
 3da:	8c e0       	ldi	r24, 0x0C	; 12
 3dc:	92 e0       	ldi	r25, 0x02	; 2
 3de:	60 e0       	ldi	r22, 0x00	; 0
 3e0:	72 e0       	ldi	r23, 0x02	; 2
 3e2:	56 df       	rcall	.-340    	; 0x290 <_ZN4UART4putsEPKc>
 3e4:	80 e1       	ldi	r24, 0x10	; 16
 3e6:	97 e2       	ldi	r25, 0x27	; 39
 3e8:	fe 01       	movw	r30, r28
 3ea:	31 97       	sbiw	r30, 0x01	; 1
 3ec:	f1 f7       	brne	.-4      	; 0x3ea <main+0x34>
 3ee:	01 97       	sbiw	r24, 0x01	; 1
 3f0:	d9 f7       	brne	.-10     	; 0x3e8 <main+0x32>
 3f2:	ee cf       	rjmp	.-36     	; 0x3d0 <main+0x1a>

000003f4 <__udivmodsi4>:
 3f4:	a1 e2       	ldi	r26, 0x21	; 33
 3f6:	1a 2e       	mov	r1, r26
 3f8:	aa 1b       	sub	r26, r26
 3fa:	bb 1b       	sub	r27, r27
 3fc:	fd 01       	movw	r30, r26
 3fe:	0d c0       	rjmp	.+26     	; 0x41a <__udivmodsi4_ep>

00000400 <__udivmodsi4_loop>:
 400:	aa 1f       	adc	r26, r26
 402:	bb 1f       	adc	r27, r27
 404:	ee 1f       	adc	r30, r30
 406:	ff 1f       	adc	r31, r31
 408:	a2 17       	cp	r26, r18
 40a:	b3 07       	cpc	r27, r19
 40c:	e4 07       	cpc	r30, r20
 40e:	f5 07       	cpc	r31, r21
 410:	20 f0       	brcs	.+8      	; 0x41a <__udivmodsi4_ep>
 412:	a2 1b       	sub	r26, r18
 414:	b3 0b       	sbc	r27, r19
 416:	e4 0b       	sbc	r30, r20
 418:	f5 0b       	sbc	r31, r21

0000041a <__udivmodsi4_ep>:
 41a:	66 1f       	adc	r22, r22
 41c:	77 1f       	adc	r23, r23
 41e:	88 1f       	adc	r24, r24
 420:	99 1f       	adc	r25, r25
 422:	1a 94       	dec	r1
 424:	69 f7       	brne	.-38     	; 0x400 <__udivmodsi4_loop>
 426:	60 95       	com	r22
 428:	70 95       	com	r23
 42a:	80 95       	com	r24
 42c:	90 95       	com	r25
 42e:	9b 01       	movw	r18, r22
 430:	ac 01       	movw	r20, r24
 432:	bd 01       	movw	r22, r26
 434:	cf 01       	movw	r24, r30
 436:	08 95       	ret

00000438 <__tablejump2__>:
 438:	ee 0f       	add	r30, r30
 43a:	ff 1f       	adc	r31, r31

0000043c <__tablejump__>:
 43c:	05 90       	lpm	r0, Z+
 43e:	f4 91       	lpm	r31, Z+
 440:	e0 2d       	mov	r30, r0
 442:	19 94       	eijmp

00000444 <__do_global_dtors>:
 444:	10 e0       	ldi	r17, 0x00	; 0
 446:	c6 ee       	ldi	r28, 0xE6	; 230
 448:	d0 e0       	ldi	r29, 0x00	; 0
 44a:	03 c0       	rjmp	.+6      	; 0x452 <.do_global_dtors_start>

0000044c <.do_global_dtors_loop>:
 44c:	fe 01       	movw	r30, r28
 44e:	f6 df       	rcall	.-20     	; 0x43c <__tablejump__>
 450:	22 96       	adiw	r28, 0x02	; 2

00000452 <.do_global_dtors_start>:
 452:	c8 3e       	cpi	r28, 0xE8	; 232
 454:	d1 07       	cpc	r29, r17
 456:	d1 f7       	brne	.-12     	; 0x44c <.do_global_dtors_loop>
 458:	f8 94       	cli

0000045a <__stop_program>:
 45a:	ff cf       	rjmp	.-2      	; 0x45a <__stop_program>
